{
  "contractName": "Authorizable",
  "abi": [
    {
      "anonymous": false,
      "inputs": [
        {
          "indexed": true,
          "internalType": "address",
          "name": "previousOwner",
          "type": "address"
        },
        {
          "indexed": true,
          "internalType": "address",
          "name": "newOwner",
          "type": "address"
        }
      ],
      "name": "OwnershipTransferred",
      "type": "event"
    },
    {
      "inputs": [
        {
          "internalType": "address",
          "name": "",
          "type": "address"
        }
      ],
      "name": "authorized",
      "outputs": [
        {
          "internalType": "bool",
          "name": "",
          "type": "bool"
        }
      ],
      "stateMutability": "view",
      "type": "function"
    },
    {
      "inputs": [],
      "name": "owner",
      "outputs": [
        {
          "internalType": "address",
          "name": "",
          "type": "address"
        }
      ],
      "stateMutability": "view",
      "type": "function"
    },
    {
      "inputs": [],
      "name": "renounceOwnership",
      "outputs": [],
      "stateMutability": "nonpayable",
      "type": "function"
    },
    {
      "inputs": [
        {
          "internalType": "address",
          "name": "newOwner",
          "type": "address"
        }
      ],
      "name": "transferOwnership",
      "outputs": [],
      "stateMutability": "nonpayable",
      "type": "function"
    },
    {
      "inputs": [
        {
          "internalType": "address",
          "name": "_toAdd",
          "type": "address"
        }
      ],
      "name": "addAuthorized",
      "outputs": [],
      "stateMutability": "nonpayable",
      "type": "function"
    },
    {
      "inputs": [
        {
          "internalType": "address",
          "name": "_toRemove",
          "type": "address"
        }
      ],
      "name": "removeAuthorized",
      "outputs": [],
      "stateMutability": "nonpayable",
      "type": "function"
    }
  ],
  "bytecode": "0x608060405234801561001057600080fd5b5061001a3361001f565b61006f565b600080546001600160a01b038381166001600160a01b0319831681178455604051919092169283917f8be0079c531659141344cd1fd0a4f28419497f9722a3daafe3b4186f6b6457e09190a35050565b6104368061007e6000396000f3fe608060405234801561001057600080fd5b50600436106100625760003560e01c8063485d7d9414610067578063715018a61461007c5780638da5cb5b14610084578063b9181611146100a9578063cf1c316a146100dc578063f2fde38b146100ef575b600080fd5b61007a61007536600461034c565b610102565b005b61007a610196565b61008c6101d1565b6040516001600160a01b0390911681526020015b60405180910390f35b6100cc6100b736600461034c565b60016020526000908152604090205460ff1681565b60405190151581526020016100a0565b61007a6100ea36600461034c565b6101e0565b61007a6100fd36600461034c565b61025c565b3361010b6101d1565b6001600160a01b03161461013a5760405162461bcd60e51b81526004016101319061037c565b60405180910390fd5b6001600160a01b0381166101605760405162461bcd60e51b8152600401610131906103b1565b336001600160a01b0382160361017557600080fd5b6001600160a01b03166000908152600160205260409020805460ff19169055565b3361019f6101d1565b6001600160a01b0316146101c55760405162461bcd60e51b81526004016101319061037c565b6101cf60006102fc565b565b6000546001600160a01b031690565b336101e96101d1565b6001600160a01b03161461020f5760405162461bcd60e51b81526004016101319061037c565b6001600160a01b0381166102355760405162461bcd60e51b8152600401610131906103b1565b6001600160a01b03166000908152600160208190526040909120805460ff19169091179055565b336102656101d1565b6001600160a01b03161461028b5760405162461bcd60e51b81526004016101319061037c565b6001600160a01b0381166102f05760405162461bcd60e51b815260206004820152602660248201527f4f776e61626c653a206e6577206f776e657220697320746865207a65726f206160448201526564647265737360d01b6064820152608401610131565b6102f9816102fc565b50565b600080546001600160a01b038381166001600160a01b0319831681178455604051919092169283917f8be0079c531659141344cd1fd0a4f28419497f9722a3daafe3b4186f6b6457e09190a35050565b60006020828403121561035e57600080fd5b81356001600160a01b038116811461037557600080fd5b9392505050565b6020808252818101527f4f776e61626c653a2063616c6c6572206973206e6f7420746865206f776e6572604082015260600190565b6020808252602f908201527f417574686f72697a61626c653a206e657720617574686f72697479206973207460408201526e6865207a65726f206164647265737360881b60608201526080019056fea264697066735822122041e3055ec40b7b76946de7ee93d08fd7ebefd628fdfb739c981f2e481812abb164736f6c634300080d0033",
  "immutableReferences": {},
  "source": "// SPDX-License-Identifier: MIT\n\npragma solidity ^0.8.0;\n\nimport \"@openzeppelin/contracts/access/Ownable.sol\";\n\ncontract Authorizable is Ownable {\n\n    mapping(address => bool) public authorized;\n\n    modifier onlyAuthorized() {\n        require(authorized[msg.sender] || owner() == msg.sender);\n        _;\n    }\n\n    function addAuthorized(address _toAdd) onlyOwner public {\n        require(_toAdd != address(0), \"Authorizable: new authority is the zero address\");\n        authorized[_toAdd] = true;\n    }\n\n    function removeAuthorized(address _toRemove) onlyOwner public {\n        require(_toRemove != address(0), \"Authorizable: new authority is the zero address\");\n        require(_toRemove != msg.sender);\n        authorized[_toRemove] = false;\n    }\n\n}",
  "sourcePath": "/home/taurinos/workspace/nft-presale/contracts/Authorizable.sol",
  "compiler": {
    "name": "solc",
    "version": "0.8.13+commit.abaa5c0e.Emscripten.clang"
  },
  "schemaVersion": "3.4.6",
  "updatedAt": "2022-04-12T16:01:45.816Z",
  "devdoc": {
    "kind": "dev",
    "methods": {
      "owner()": {
        "details": "Returns the address of the current owner."
      },
      "renounceOwnership()": {
        "details": "Leaves the contract without owner. It will not be possible to call `onlyOwner` functions anymore. Can only be called by the current owner. NOTE: Renouncing ownership will leave the contract without an owner, thereby removing any functionality that is only available to the owner."
      },
      "transferOwnership(address)": {
        "details": "Transfers ownership of the contract to a new account (`newOwner`). Can only be called by the current owner."
      }
    },
    "version": 1
  },
  "userdoc": {
    "kind": "user",
    "methods": {},
    "version": 1
  }
}