{
  "contractName": "PlanetHorseNFT",
  "abi": [
    {
      "inputs": [
        {
          "internalType": "contract ERC20",
          "name": "paymentCurrency_",
          "type": "address"
        },
        {
          "internalType": "uint256",
          "name": "maxSupply_",
          "type": "uint256"
        },
        {
          "internalType": "uint256",
          "name": "maxMintAmount_",
          "type": "uint256"
        },
        {
          "internalType": "uint256",
          "name": "whitelistSaleTime_",
          "type": "uint256"
        },
        {
          "internalType": "uint256",
          "name": "publicSaleTime_",
          "type": "uint256"
        },
        {
          "internalType": "uint256",
          "name": "unlimitedSaleTime_",
          "type": "uint256"
        },
        {
          "internalType": "string",
          "name": "hiddenBaseURI_",
          "type": "string"
        },
        {
          "internalType": "bool",
          "name": "transfersPaused_",
          "type": "bool"
        }
      ],
      "stateMutability": "nonpayable",
      "type": "constructor"
    },
    {
      "anonymous": false,
      "inputs": [
        {
          "indexed": true,
          "internalType": "address",
          "name": "owner",
          "type": "address"
        },
        {
          "indexed": true,
          "internalType": "address",
          "name": "approved",
          "type": "address"
        },
        {
          "indexed": true,
          "internalType": "uint256",
          "name": "tokenId",
          "type": "uint256"
        }
      ],
      "name": "Approval",
      "type": "event"
    },
    {
      "anonymous": false,
      "inputs": [
        {
          "indexed": true,
          "internalType": "address",
          "name": "owner",
          "type": "address"
        },
        {
          "indexed": true,
          "internalType": "address",
          "name": "operator",
          "type": "address"
        },
        {
          "indexed": false,
          "internalType": "bool",
          "name": "approved",
          "type": "bool"
        }
      ],
      "name": "ApprovalForAll",
      "type": "event"
    },
    {
      "anonymous": false,
      "inputs": [
        {
          "indexed": true,
          "internalType": "address",
          "name": "previousOwner",
          "type": "address"
        },
        {
          "indexed": true,
          "internalType": "address",
          "name": "newOwner",
          "type": "address"
        }
      ],
      "name": "OwnershipTransferred",
      "type": "event"
    },
    {
      "anonymous": false,
      "inputs": [
        {
          "indexed": false,
          "internalType": "address",
          "name": "account",
          "type": "address"
        }
      ],
      "name": "Paused",
      "type": "event"
    },
    {
      "anonymous": false,
      "inputs": [
        {
          "indexed": true,
          "internalType": "address",
          "name": "from",
          "type": "address"
        },
        {
          "indexed": true,
          "internalType": "address",
          "name": "to",
          "type": "address"
        },
        {
          "indexed": true,
          "internalType": "uint256",
          "name": "tokenId",
          "type": "uint256"
        }
      ],
      "name": "Transfer",
      "type": "event"
    },
    {
      "anonymous": false,
      "inputs": [
        {
          "indexed": false,
          "internalType": "address",
          "name": "account",
          "type": "address"
        }
      ],
      "name": "Unpaused",
      "type": "event"
    },
    {
      "inputs": [
        {
          "internalType": "address",
          "name": "to",
          "type": "address"
        },
        {
          "internalType": "uint256",
          "name": "tokenId",
          "type": "uint256"
        }
      ],
      "name": "approve",
      "outputs": [],
      "stateMutability": "nonpayable",
      "type": "function"
    },
    {
      "inputs": [
        {
          "internalType": "address",
          "name": "owner",
          "type": "address"
        }
      ],
      "name": "balanceOf",
      "outputs": [
        {
          "internalType": "uint256",
          "name": "",
          "type": "uint256"
        }
      ],
      "stateMutability": "view",
      "type": "function",
      "constant": true
    },
    {
      "inputs": [
        {
          "internalType": "uint256",
          "name": "tokenId",
          "type": "uint256"
        }
      ],
      "name": "getApproved",
      "outputs": [
        {
          "internalType": "address",
          "name": "",
          "type": "address"
        }
      ],
      "stateMutability": "view",
      "type": "function",
      "constant": true
    },
    {
      "inputs": [
        {
          "internalType": "address",
          "name": "owner",
          "type": "address"
        },
        {
          "internalType": "address",
          "name": "operator",
          "type": "address"
        }
      ],
      "name": "isApprovedForAll",
      "outputs": [
        {
          "internalType": "bool",
          "name": "",
          "type": "bool"
        }
      ],
      "stateMutability": "view",
      "type": "function",
      "constant": true
    },
    {
      "inputs": [],
      "name": "name",
      "outputs": [
        {
          "internalType": "string",
          "name": "",
          "type": "string"
        }
      ],
      "stateMutability": "view",
      "type": "function",
      "constant": true
    },
    {
      "inputs": [],
      "name": "owner",
      "outputs": [
        {
          "internalType": "address",
          "name": "",
          "type": "address"
        }
      ],
      "stateMutability": "view",
      "type": "function",
      "constant": true
    },
    {
      "inputs": [
        {
          "internalType": "uint256",
          "name": "tokenId",
          "type": "uint256"
        }
      ],
      "name": "ownerOf",
      "outputs": [
        {
          "internalType": "address",
          "name": "",
          "type": "address"
        }
      ],
      "stateMutability": "view",
      "type": "function",
      "constant": true
    },
    {
      "inputs": [],
      "name": "paused",
      "outputs": [
        {
          "internalType": "bool",
          "name": "",
          "type": "bool"
        }
      ],
      "stateMutability": "view",
      "type": "function",
      "constant": true
    },
    {
      "inputs": [],
      "name": "paymentCurrency",
      "outputs": [
        {
          "internalType": "contract ERC20",
          "name": "",
          "type": "address"
        }
      ],
      "stateMutability": "view",
      "type": "function",
      "constant": true
    },
    {
      "inputs": [],
      "name": "renounceOwnership",
      "outputs": [],
      "stateMutability": "nonpayable",
      "type": "function"
    },
    {
      "inputs": [
        {
          "internalType": "address",
          "name": "from",
          "type": "address"
        },
        {
          "internalType": "address",
          "name": "to",
          "type": "address"
        },
        {
          "internalType": "uint256",
          "name": "tokenId",
          "type": "uint256"
        }
      ],
      "name": "safeTransferFrom",
      "outputs": [],
      "stateMutability": "nonpayable",
      "type": "function"
    },
    {
      "inputs": [
        {
          "internalType": "address",
          "name": "from",
          "type": "address"
        },
        {
          "internalType": "address",
          "name": "to",
          "type": "address"
        },
        {
          "internalType": "uint256",
          "name": "tokenId",
          "type": "uint256"
        },
        {
          "internalType": "bytes",
          "name": "_data",
          "type": "bytes"
        }
      ],
      "name": "safeTransferFrom",
      "outputs": [],
      "stateMutability": "nonpayable",
      "type": "function"
    },
    {
      "inputs": [
        {
          "internalType": "address",
          "name": "operator",
          "type": "address"
        },
        {
          "internalType": "bool",
          "name": "approved",
          "type": "bool"
        }
      ],
      "name": "setApprovalForAll",
      "outputs": [],
      "stateMutability": "nonpayable",
      "type": "function"
    },
    {
      "inputs": [],
      "name": "symbol",
      "outputs": [
        {
          "internalType": "string",
          "name": "",
          "type": "string"
        }
      ],
      "stateMutability": "view",
      "type": "function",
      "constant": true
    },
    {
      "inputs": [
        {
          "internalType": "uint256",
          "name": "index",
          "type": "uint256"
        }
      ],
      "name": "tokenByIndex",
      "outputs": [
        {
          "internalType": "uint256",
          "name": "",
          "type": "uint256"
        }
      ],
      "stateMutability": "view",
      "type": "function",
      "constant": true
    },
    {
      "inputs": [
        {
          "internalType": "address",
          "name": "owner",
          "type": "address"
        },
        {
          "internalType": "uint256",
          "name": "index",
          "type": "uint256"
        }
      ],
      "name": "tokenOfOwnerByIndex",
      "outputs": [
        {
          "internalType": "uint256",
          "name": "",
          "type": "uint256"
        }
      ],
      "stateMutability": "view",
      "type": "function",
      "constant": true
    },
    {
      "inputs": [],
      "name": "totalSupply",
      "outputs": [
        {
          "internalType": "uint256",
          "name": "",
          "type": "uint256"
        }
      ],
      "stateMutability": "view",
      "type": "function",
      "constant": true
    },
    {
      "inputs": [
        {
          "internalType": "address",
          "name": "from",
          "type": "address"
        },
        {
          "internalType": "address",
          "name": "to",
          "type": "address"
        },
        {
          "internalType": "uint256",
          "name": "tokenId",
          "type": "uint256"
        }
      ],
      "name": "transferFrom",
      "outputs": [],
      "stateMutability": "nonpayable",
      "type": "function"
    },
    {
      "inputs": [
        {
          "internalType": "address",
          "name": "newOwner",
          "type": "address"
        }
      ],
      "name": "transferOwnership",
      "outputs": [],
      "stateMutability": "nonpayable",
      "type": "function"
    },
    {
      "inputs": [],
      "name": "withdraw",
      "outputs": [],
      "stateMutability": "nonpayable",
      "type": "function"
    },
    {
      "inputs": [
        {
          "internalType": "address",
          "name": "to",
          "type": "address"
        }
      ],
      "name": "withdraw",
      "outputs": [],
      "stateMutability": "nonpayable",
      "type": "function"
    },
    {
      "inputs": [
        {
          "internalType": "address",
          "name": "token",
          "type": "address"
        },
        {
          "internalType": "address",
          "name": "to",
          "type": "address"
        }
      ],
      "name": "withdrawToken",
      "outputs": [],
      "stateMutability": "nonpayable",
      "type": "function"
    },
    {
      "inputs": [
        {
          "internalType": "address",
          "name": "token",
          "type": "address"
        }
      ],
      "name": "withdrawToken",
      "outputs": [],
      "stateMutability": "nonpayable",
      "type": "function"
    },
    {
      "inputs": [],
      "name": "maxSupply",
      "outputs": [
        {
          "internalType": "uint256",
          "name": "",
          "type": "uint256"
        }
      ],
      "stateMutability": "view",
      "type": "function",
      "constant": true
    },
    {
      "inputs": [],
      "name": "maxMintAmount",
      "outputs": [
        {
          "internalType": "uint256",
          "name": "",
          "type": "uint256"
        }
      ],
      "stateMutability": "view",
      "type": "function",
      "constant": true
    },
    {
      "inputs": [],
      "name": "pause",
      "outputs": [],
      "stateMutability": "nonpayable",
      "type": "function"
    },
    {
      "inputs": [],
      "name": "unpause",
      "outputs": [],
      "stateMutability": "nonpayable",
      "type": "function"
    },
    {
      "inputs": [
        {
          "internalType": "string",
          "name": "rarity_",
          "type": "string"
        }
      ],
      "name": "mint",
      "outputs": [],
      "stateMutability": "nonpayable",
      "type": "function"
    },
    {
      "inputs": [
        {
          "internalType": "string",
          "name": "rarity_",
          "type": "string"
        }
      ],
      "name": "mintWhitelist",
      "outputs": [],
      "stateMutability": "nonpayable",
      "type": "function"
    },
    {
      "inputs": [
        {
          "internalType": "address",
          "name": "to_",
          "type": "address"
        },
        {
          "internalType": "string",
          "name": "rarity_",
          "type": "string"
        }
      ],
      "name": "mintOwner",
      "outputs": [],
      "stateMutability": "nonpayable",
      "type": "function"
    },
    {
      "inputs": [
        {
          "internalType": "uint256",
          "name": "tokenId",
          "type": "uint256"
        }
      ],
      "name": "tokenURI",
      "outputs": [
        {
          "internalType": "string",
          "name": "",
          "type": "string"
        }
      ],
      "stateMutability": "view",
      "type": "function",
      "constant": true
    },
    {
      "inputs": [
        {
          "internalType": "uint256",
          "name": "tokenId",
          "type": "uint256"
        }
      ],
      "name": "tokenTierById",
      "outputs": [
        {
          "internalType": "string",
          "name": "",
          "type": "string"
        }
      ],
      "stateMutability": "view",
      "type": "function",
      "constant": true
    },
    {
      "inputs": [],
      "name": "transfersPaused",
      "outputs": [
        {
          "internalType": "bool",
          "name": "",
          "type": "bool"
        }
      ],
      "stateMutability": "view",
      "type": "function",
      "constant": true
    },
    {
      "inputs": [
        {
          "internalType": "bool",
          "name": "transfersPaused_",
          "type": "bool"
        }
      ],
      "name": "setTransfersPaused",
      "outputs": [],
      "stateMutability": "nonpayable",
      "type": "function"
    },
    {
      "inputs": [
        {
          "internalType": "bytes4",
          "name": "interfaceId",
          "type": "bytes4"
        }
      ],
      "name": "supportsInterface",
      "outputs": [
        {
          "internalType": "bool",
          "name": "",
          "type": "bool"
        }
      ],
      "stateMutability": "view",
      "type": "function",
      "constant": true
    },
    {
      "inputs": [
        {
          "internalType": "uint256",
          "name": "maxSupply_",
          "type": "uint256"
        }
      ],
      "name": "setMaxSupply",
      "outputs": [],
      "stateMutability": "nonpayable",
      "type": "function"
    },
    {
      "inputs": [
        {
          "internalType": "uint256",
          "name": "maxMintAmount_",
          "type": "uint256"
        }
      ],
      "name": "setMaxMintAmount",
      "outputs": [],
      "stateMutability": "nonpayable",
      "type": "function"
    },
    {
      "inputs": [
        {
          "internalType": "string",
          "name": "baseURI",
          "type": "string"
        }
      ],
      "name": "setHiddenURI",
      "outputs": [],
      "stateMutability": "nonpayable",
      "type": "function"
    },
    {
      "inputs": [
        {
          "internalType": "string",
          "name": "baseURI",
          "type": "string"
        },
        {
          "internalType": "uint256",
          "name": "tokenId",
          "type": "uint256"
        }
      ],
      "name": "setRevealedURI",
      "outputs": [],
      "stateMutability": "nonpayable",
      "type": "function"
    },
    {
      "inputs": [
        {
          "internalType": "uint256",
          "name": "tokenId",
          "type": "uint256"
        }
      ],
      "name": "reveal",
      "outputs": [],
      "stateMutability": "nonpayable",
      "type": "function"
    },
    {
      "inputs": [
        {
          "internalType": "address[]",
          "name": "addrs",
          "type": "address[]"
        }
      ],
      "name": "registerWhitelist",
      "outputs": [],
      "stateMutability": "nonpayable",
      "type": "function"
    },
    {
      "inputs": [],
      "name": "whitelistSaleTime",
      "outputs": [
        {
          "internalType": "uint256",
          "name": "",
          "type": "uint256"
        }
      ],
      "stateMutability": "view",
      "type": "function",
      "constant": true
    },
    {
      "inputs": [
        {
          "internalType": "uint256",
          "name": "whitelistSaleTime_",
          "type": "uint256"
        }
      ],
      "name": "setWhitelistSaleTime",
      "outputs": [],
      "stateMutability": "nonpayable",
      "type": "function"
    },
    {
      "inputs": [],
      "name": "publicSaleTime",
      "outputs": [
        {
          "internalType": "uint256",
          "name": "",
          "type": "uint256"
        }
      ],
      "stateMutability": "view",
      "type": "function",
      "constant": true
    },
    {
      "inputs": [
        {
          "internalType": "uint256",
          "name": "publicSaleTime_",
          "type": "uint256"
        }
      ],
      "name": "setPublicSaleTime",
      "outputs": [],
      "stateMutability": "nonpayable",
      "type": "function"
    },
    {
      "inputs": [],
      "name": "unlimitedSaleTime",
      "outputs": [
        {
          "internalType": "uint256",
          "name": "",
          "type": "uint256"
        }
      ],
      "stateMutability": "view",
      "type": "function",
      "constant": true
    },
    {
      "inputs": [
        {
          "internalType": "uint256",
          "name": "unlimitedSaleTime_",
          "type": "uint256"
        }
      ],
      "name": "setunlimitedSaleTime",
      "outputs": [],
      "stateMutability": "nonpayable",
      "type": "function"
    },
    {
      "inputs": [],
      "name": "revealTime",
      "outputs": [
        {
          "internalType": "uint256",
          "name": "",
          "type": "uint256"
        }
      ],
      "stateMutability": "view",
      "type": "function",
      "constant": true
    },
    {
      "inputs": [
        {
          "internalType": "uint256",
          "name": "revealTime_",
          "type": "uint256"
        }
      ],
      "name": "setRevealTime",
      "outputs": [],
      "stateMutability": "nonpayable",
      "type": "function"
    }
  ],
  "bytecode": "0x61014060405261070860805261067260a0526105dc60c05261046560e0526103846101005261020d61012052601b80546001600160601b0319166b020d0384046505dc067207081790553480156200005657600080fd5b50604051620039af380380620039af8339810160408190526200007991620002b2565b604080518082018252600e81526d141b185b995d121bdc9cd953919560921b60208083019182528351808501909452600a845269141213d494d14813919560b21b908401528151919291620000d191600091620001e0565b508051620000e7906001906020840190620001e0565b5050600a805460ff1916905550620000ff336200017d565b600b80546001600160a01b0319166001600160a01b038a1617905560148790556015869055601685905560178490556018839055815162000148906013906020850190620001e0565b50601a805460ff19168215151790556200016f600c620001d7602090811b6200157b17901c565b505050505050505062000430565b600a80546001600160a01b03838116610100818102610100600160a81b031985161790945560405193909204169182907f8be0079c531659141344cd1fd0a4f28419497f9722a3daafe3b4186f6b6457e090600090a35050565b80546001019055565b828054620001ee90620003f4565b90600052602060002090601f0160209004810192826200021257600085556200025d565b82601f106200022d57805160ff19168380011785556200025d565b828001600101855582156200025d579182015b828111156200025d57825182559160200191906001019062000240565b506200026b9291506200026f565b5090565b5b808211156200026b576000815560010162000270565b634e487b7160e01b600052604160045260246000fd5b80518015158114620002ad57600080fd5b919050565b600080600080600080600080610100898b031215620002d057600080fd5b88516001600160a01b0381168114620002e857600080fd5b809850506020808a0151975060408a0151965060608a0151955060808a0151945060a08a0151935060c08a015160018060401b03808211156200032a57600080fd5b818c0191508c601f8301126200033f57600080fd5b81518181111562000354576200035462000286565b604051601f8201601f19908116603f011681019083821181831017156200037f576200037f62000286565b816040528281528f868487010111156200039857600080fd5b600093505b82841015620003bc57848401860151818501870152928501926200039d565b82841115620003ce5760008684830101525b809750505050505050620003e560e08a016200029c565b90509295985092959890939650565b600181811c908216806200040957607f821691505b6020821081036200042a57634e487b7160e01b600052602260045260246000fd5b50919050565b61356f80620004406000396000f3fe608060405234801561001057600080fd5b506004361061023b5760003560e01c806301ffc9a71461024057806306fdde0314610268578063081812fc1461027d578063088a4ed01461029d578063095ea7b3146102b25780630f49fe93146102c557806311b7e5e7146102d857806318160ddd146102eb5780632344be0a146102fd578063239c70ae1461030557806323b872dd1461030d5780632ecea7b7146103205780632f745c59146103285780633aeac4e11461033b5780633ccfd60b1461034e5780633d15cc6d146103565780633f4ba83a1461036957806342842e0e1461037157806344e46dff146103845780634563f30a146103975780634f6ccce7146103a257806351cff8d9146103b55780635c975abb146103c85780636352211e146103d35780636f8b44b0146103e65780636fe9cde3146103f957806370a082311461040c578063715018a61461041f57806382562d0b146104275780638456cb591461042f57806389476069146104375780638da5cb5b1461044a57806395d89b41146104525780639a9fb5a61461045a578063a22cb4651461046d578063afdea6c214610480578063b88d4fde14610493578063ba829d71146104a6578063bbaac02f146104ae578063c1e28507146104c1578063c2c02770146104d4578063c2ca0ac5146104e7578063c83c71e0146104fa578063c87b56dd1461050d578063d5abeb0114610520578063d85d3d2714610528578063e985e9c51461053b578063f2fde38b1461054e578063f9b8c3bd14610561575b600080fd5b61025361024e366004612b53565b610574565b60405190151581526020015b60405180910390f35b610270610594565b60405161025f9190612bc4565b61029061028b366004612bd7565b610626565b60405161025f9190612bf0565b6102b06102ab366004612bd7565b6106b3565b005b6102b06102c0366004612c1b565b6106e7565b6102b06102d3366004612d02565b6107f7565b6102b06102e6366004612bd7565b6109a5565b6008545b60405190815260200161025f565b6017546102ef565b6015546102ef565b6102b061031b366004612d36565b6109d9565b6016546102ef565b6102ef610336366004612c1b565b610a0a565b6102b0610349366004612d72565b610aa0565b6102b0610aff565b600b54610290906001600160a01b031681565b6102b0610b3b565b6102b061037f366004612d36565b610b72565b6102b0610392366004612db3565b610b8d565b601a5460ff16610253565b6102ef6103b0366004612bd7565b610bcf565b6102b06103c3366004612dd0565b610c62565b600a5460ff16610253565b6102906103e1366004612bd7565b610c9f565b6102b06103f4366004612bd7565b610d16565b6102b0610407366004612deb565b610d4a565b6102ef61041a366004612dd0565b610d98565b6102b0610e1f565b6018546102ef565b6102b0610e58565b6102b0610445366004612dd0565b610e8f565b610290610eee565b610270610f02565b6102b0610468366004612bd7565b610f11565b6102b061047b366004612e2f565b610f45565b6102b061048e366004612bd7565b610f50565b6102b06104a1366004612e66565b610f84565b6019546102ef565b6102b06104bc366004612d02565b610fbc565b6102b06104cf366004612bd7565b610ffe565b6102b06104e2366004612ee1565b611032565b6102b06104f5366004612bd7565b6110c9565b610270610508366004612bd7565b6111dd565b61027061051b366004612bd7565b6112a2565b6014546102ef565b6102b0610536366004612d02565b611340565b610253610549366004612d72565b61143f565b6102b061055c366004612dd0565b61146d565b6102b061056f366004612f8d565b61150a565b600061057f82611584565b8061058e575061058e826115d4565b92915050565b6060600080546105a390612fda565b80601f01602080910402602001604051908101604052809291908181526020018280546105cf90612fda565b801561061c5780601f106105f15761010080835404028352916020019161061c565b820191906000526020600020905b8154815290600101906020018083116105ff57829003601f168201915b5050505050905090565b6000610631826115f9565b6106975760405162461bcd60e51b815260206004820152602c60248201527f4552433732313a20617070726f76656420717565727920666f72206e6f6e657860448201526b34b9ba32b73a103a37b5b2b760a11b60648201526084015b60405180910390fd5b506000908152600460205260409020546001600160a01b031690565b336106bc610eee565b6001600160a01b0316146106e25760405162461bcd60e51b815260040161068e90613014565b601555565b60006106f282610c9f565b9050806001600160a01b0316836001600160a01b03160361075f5760405162461bcd60e51b815260206004820152602160248201527f4552433732313a20617070726f76616c20746f2063757272656e74206f776e656044820152603960f91b606482015260840161068e565b336001600160a01b038216148061077b575061077b813361143f565b6107e85760405162461bcd60e51b815260206004820152603860248201527f4552433732313a20617070726f76652063616c6c6572206973206e6f74206f776044820152771b995c881b9bdc88185c1c1c9bdd995908199bdc88185b1b60421b606482015260840161068e565b6107f28383611616565b505050565b600a5460ff161561081a5760405162461bcd60e51b815260040161068e90613049565b61082381611684565b336000908152601d602052604090205460ff166108915760405162461bcd60e51b815260206004820152602660248201527f506c616e6574486f7273654e46543a2073656e646572206e6f742077686974656044820152651b1a5cdd195960d21b606482015260840161068e565b6018544210156108d0576015546108a733610d98565b6108b2906001613089565b11156108d05760405162461bcd60e51b815260040161068e906130a1565b6014546008546108e1906001613089565b11156108ff5760405162461bcd60e51b815260040161068e906130e7565b6016544210156109675760405162461bcd60e51b815260206004820152602d60248201527f506c616e6574486f7273654e46543a2077686974656c6973742073616c65206860448201526c185cdb89dd081cdd185c9d1959609a1b606482015260840161068e565b6000610972600c5490565b6000818152601e602090815260409091208451929350610996929091850190612aa4565b506109a133836117b9565b5050565b336109ae610eee565b6001600160a01b0316146109d45760405162461bcd60e51b815260040161068e90613014565b601755565b6109e33382611e51565b6109ff5760405162461bcd60e51b815260040161068e90613129565b6107f2838383611f1b565b6000610a1583610d98565b8210610a775760405162461bcd60e51b815260206004820152602b60248201527f455243373231456e756d657261626c653a206f776e657220696e646578206f7560448201526a74206f6620626f756e647360a81b606482015260840161068e565b506001600160a01b03919091166000908152600660209081526040808320938352929052205490565b33610aa9610eee565b6001600160a01b031614610acf5760405162461bcd60e51b815260040161068e90613014565b6001600160a01b038216610af55760405162461bcd60e51b815260040161068e9061317a565b6109a182826120b0565b33610b08610eee565b6001600160a01b031614610b2e5760405162461bcd60e51b815260040161068e90613014565b610b396000336120b0565b565b33610b44610eee565b6001600160a01b031614610b6a5760405162461bcd60e51b815260040161068e90613014565b610b396122e3565b6107f283838360405180602001604052806000815250610f84565b33610b96610eee565b6001600160a01b031614610bbc5760405162461bcd60e51b815260040161068e90613014565b601a805460ff1916911515919091179055565b6000610bda60085490565b8210610c3d5760405162461bcd60e51b815260206004820152602c60248201527f455243373231456e756d657261626c653a20676c6f62616c20696e646578206f60448201526b7574206f6620626f756e647360a01b606482015260840161068e565b60088281548110610c5057610c506131ca565b90600052602060002001549050919050565b33610c6b610eee565b6001600160a01b031614610c915760405162461bcd60e51b815260040161068e90613014565b610c9c6000826120b0565b50565b6000818152600260205260408120546001600160a01b03168061058e5760405162461bcd60e51b815260206004820152602960248201527f4552433732313a206f776e657220717565727920666f72206e6f6e657869737460448201526832b73a103a37b5b2b760b91b606482015260840161068e565b33610d1f610eee565b6001600160a01b031614610d455760405162461bcd60e51b815260040161068e90613014565b601455565b33610d53610eee565b6001600160a01b031614610d795760405162461bcd60e51b815260040161068e90613014565b6000818152601f6020908152604090912083516107f292850190612aa4565b60006001600160a01b038216610e035760405162461bcd60e51b815260206004820152602a60248201527f4552433732313a2062616c616e636520717565727920666f7220746865207a65604482015269726f206164647265737360b01b606482015260840161068e565b506001600160a01b031660009081526003602052604090205490565b33610e28610eee565b6001600160a01b031614610e4e5760405162461bcd60e51b815260040161068e90613014565b610b396000612370565b33610e61610eee565b6001600160a01b031614610e875760405162461bcd60e51b815260040161068e90613014565b610b396123ca565b33610e98610eee565b6001600160a01b031614610ebe5760405162461bcd60e51b815260040161068e90613014565b6001600160a01b038116610ee45760405162461bcd60e51b815260040161068e9061317a565b610c9c81336120b0565b600a5461010090046001600160a01b031690565b6060600180546105a390612fda565b33610f1a610eee565b6001600160a01b031614610f405760405162461bcd60e51b815260040161068e90613014565b601855565b6109a1338383612422565b33610f59610eee565b6001600160a01b031614610f7f5760405162461bcd60e51b815260040161068e90613014565b601655565b610f8e3383611e51565b610faa5760405162461bcd60e51b815260040161068e90613129565b610fb6848484846124ec565b50505050565b33610fc5610eee565b6001600160a01b031614610feb5760405162461bcd60e51b815260040161068e90613014565b80516109a1906013906020840190612aa4565b33611007610eee565b6001600160a01b03161461102d5760405162461bcd60e51b815260040161068e90613014565b601955565b3361103b610eee565b6001600160a01b0316146110615760405162461bcd60e51b815260040161068e90613014565b60005b81518110156109a1576001601d6000848481518110611085576110856131ca565b6020908102919091018101516001600160a01b03168252810191909152604001600020805460ff1916911515919091179055806110c1816131e0565b915050611064565b600a5460ff16156110ec5760405162461bcd60e51b815260040161068e90613049565b336110f682610c9f565b6001600160a01b03161461115d5760405162461bcd60e51b815260206004820152602860248201527f506c616e6574486f7273654e46543a206f6e6c79204e4654206f776e657220636044820152670c2dc40eadcc4def60c31b606482015260840161068e565b6019544210156111c25760405162461bcd60e51b815260206004820152602a60248201527f506c616e6574486f7273654e46543a20626f78206f70656e696e67206861736e60448201526909dd081cdd185c9d195960b21b606482015260840161068e565b6000908152601c60205260409020805460ff19166001179055565b60606111e8826115f9565b6112045760405162461bcd60e51b815260040161068e906131f9565b6000828152601e60205260409020805461121d90612fda565b80601f016020809104026020016040519081016040528092919081815260200182805461124990612fda565b80156112965780601f1061126b57610100808354040283529160200191611296565b820191906000526020600020905b81548152906001019060200180831161127957829003601f168201915b50505050509050919050565b60606112ad826115f9565b6112c95760405162461bcd60e51b815260040161068e906131f9565b6000828152601c602052604090205460ff1615611315576000828152601f602090815260409182902091516112ff9291016132e0565b6040516020818303038152906040529050919050565b6013601e60008481526020019081526020016000206040516020016112ff9291906132ec565b919050565b600a5460ff16156113635760405162461bcd60e51b815260040161068e90613049565b61136c81611684565b6018544210156113ab5760155461138233610d98565b61138d906001613089565b11156113ab5760405162461bcd60e51b815260040161068e906130a1565b6014546008546113bc906001613089565b11156113da5760405162461bcd60e51b815260040161068e906130e7565b6017544210156109675760405162461bcd60e51b815260206004820152602a60248201527f506c616e6574486f7273654e46543a207075626c69632073616c65206861736e60448201526909dd081cdd185c9d195960b21b606482015260840161068e565b6001600160a01b03918216600090815260056020908152604080832093909416825291909152205460ff1690565b33611476610eee565b6001600160a01b03161461149c5760405162461bcd60e51b815260040161068e90613014565b6001600160a01b0381166115015760405162461bcd60e51b815260206004820152602660248201527f4f776e61626c653a206e6577206f776e657220697320746865207a65726f206160448201526564647265737360d01b606482015260840161068e565b610c9c81612370565b33611513610eee565b6001600160a01b0316146115395760405162461bcd60e51b815260040161068e90613014565b61154281611684565b600061154d600c5490565b6000818152601e602090815260409091208451929350611571929091850190612aa4565b506107f28361251f565b80546001019055565b60006001600160e01b031982166380ac58cd60e01b14806115b557506001600160e01b03198216635b5e139f60e01b145b8061058e57506301ffc9a760e01b6001600160e01b031983161461058e565b60006001600160e01b0319821663780e9d6360e01b148061058e575061058e82611584565b6000908152600260205260409020546001600160a01b0316151590565b600081815260046020526040902080546001600160a01b0319166001600160a01b038416908117909155819061164b82610c9f565b6001600160a01b03167f8c5be1e5ebec7d5bd14f71427d1e84f3dd0314c0f7b2291e5b200ac8c7c3b92560405160405180910390a45050565b805160208201207f3955032f1b4fd3485213d1c8a0e4ced5c0b5d4e9ffa466e04ca90c624d38a25214806116dd5750805160208201207f2cf735e2c7740b1996c475c19261a0b7dc86863c4718b4dfa4b90956a5ece4ff145b8061170d5750805160208201207f41ffe11b53b3b4b3c7e561e2030cadfb46606e683613c6775c6896bbb9dc3f74145b8061173d5750805160208201207f04f4f20a2d65eb0f15d7fb252c9027859568c706ff77f8b4471a76adbed564c4145b8061176d5750805160208201207fa76b05647d9b491c5152725088a2716b8cbccbeee61d5e96496d3d90a759ca54145b8061179d5750805160208201207f22788cfc2137a65afabbd2a0858d0b06af1af141310b42f9ff8a00bc1eaa7ecf145b610c9c5760405162461bcd60e51b815260040161068e90613317565b600a5460ff16156117dc5760405162461bcd60e51b815260040161068e90613049565b805160208201207fc6aafcd0e4b02cb7adec2e375f1b312a3f4a2b16005b991fb356f39db2c75dae016118ed576000611814600d5490565b601b5490915061ffff908116908216106118405760405162461bcd60e51b815260040161068e9061334c565b600b546040516323b872dd60e01b81526001600160a01b03909116906323b872dd906118779086903090624c4b409060040161338f565b6020604051808303816000875af1158015611896573d6000803e3d6000fd5b505050506040513d601f19601f820116820180604052508101906118ba91906133b3565b6118d65760405162461bcd60e51b815260040161068e906133d0565b6118e4600d80546001019055565b6107f28361251f565b805160208201207fd308ca1d388bf4e6693b8a3e6d9e5f48237979c3b8e74b205b46f6a95a131b01016119fb576000611925600e5490565b601b5490915061ffff620100009091048116908216106119575760405162461bcd60e51b815260040161068e9061334c565b600b546040516323b872dd60e01b81526001600160a01b03909116906323b872dd9061198e9086903090627270e09060040161338f565b6020604051808303816000875af11580156119ad573d6000803e3d6000fd5b505050506040513d601f19601f820116820180604052508101906119d191906133b3565b6119ed5760405162461bcd60e51b815260040161068e906133d0565b6118e4600e80546001019055565b805160208201207fbe001ee4ac4c4b4c381a9e1dfcf35204b99f9197c9ec3988a39769444623c08c01611b0a576000611a33600f5490565b601b5490915061ffff600160201b909104811690821610611a665760405162461bcd60e51b815260040161068e9061334c565b600b546040516323b872dd60e01b81526001600160a01b03909116906323b872dd90611a9d908690309062b71b009060040161338f565b6020604051808303816000875af1158015611abc573d6000803e3d6000fd5b505050506040513d601f19601f82011682018060405250810190611ae091906133b3565b611afc5760405162461bcd60e51b815260040161068e906133d0565b6118e4600f80546001019055565b805160208201207ffb0b0df5d29a14f0ea2804dad36fd87a6a9738f90088074bb8e58952412a9b3c01611c19576000611b4260105490565b601b5490915061ffff600160301b909104811690821610611b755760405162461bcd60e51b815260040161068e9061334c565b600b546040516323b872dd60e01b81526001600160a01b03909116906323b872dd90611bac908690309062e4e1c09060040161338f565b6020604051808303816000875af1158015611bcb573d6000803e3d6000fd5b505050506040513d601f19601f82011682018060405250810190611bef91906133b3565b611c0b5760405162461bcd60e51b815260040161068e906133d0565b6118e4601080546001019055565b805160208201207f5894fa9b8264b6e3aead8daf775d8e947343341119e2a169b692c26f58a635ac01611d29576000611c5160115490565b601b5490915061ffff600160401b909104811690821610611c845760405162461bcd60e51b815260040161068e9061334c565b600b546040516323b872dd60e01b81526001600160a01b03909116906323b872dd90611cbc90869030906301c9c3809060040161338f565b6020604051808303816000875af1158015611cdb573d6000803e3d6000fd5b505050506040513d601f19601f82011682018060405250810190611cff91906133b3565b611d1b5760405162461bcd60e51b815260040161068e906133d0565b6118e4601180546001019055565b805160208201207fdd877303dec859a505442d5f7a72f4f950e50ebecef4bd060075ff43e155813101611e39576000611d6160125490565b601b5490915061ffff600160501b909104811690821610611d945760405162461bcd60e51b815260040161068e9061334c565b600b546040516323b872dd60e01b81526001600160a01b03909116906323b872dd90611dcc90869030906302faf0809060040161338f565b6020604051808303816000875af1158015611deb573d6000803e3d6000fd5b505050506040513d601f19601f82011682018060405250810190611e0f91906133b3565b611e2b5760405162461bcd60e51b815260040161068e906133d0565b6118e4601280546001019055565b60405162461bcd60e51b815260040161068e90613317565b6000611e5c826115f9565b611ebd5760405162461bcd60e51b815260206004820152602c60248201527f4552433732313a206f70657261746f7220717565727920666f72206e6f6e657860448201526b34b9ba32b73a103a37b5b2b760a11b606482015260840161068e565b6000611ec883610c9f565b9050806001600160a01b0316846001600160a01b03161480611f035750836001600160a01b0316611ef884610626565b6001600160a01b0316145b80611f135750611f13818561143f565b949350505050565b826001600160a01b0316611f2e82610c9f565b6001600160a01b031614611f925760405162461bcd60e51b815260206004820152602560248201527f4552433732313a207472616e736665722066726f6d20696e636f72726563742060448201526437bbb732b960d91b606482015260840161068e565b6001600160a01b038216611ff45760405162461bcd60e51b8152602060048201526024808201527f4552433732313a207472616e7366657220746f20746865207a65726f206164646044820152637265737360e01b606482015260840161068e565b611fff838383612566565b61200a600082611616565b6001600160a01b0383166000908152600360205260408120805460019290612033908490613407565b90915550506001600160a01b0382166000908152600360205260408120805460019290612061908490613089565b909155505060008181526002602052604080822080546001600160a01b0319166001600160a01b0386811691821790925591518493918716916000805160206134fa83398151915291a4505050565b6001600160a01b03811661211c5760405162461bcd60e51b815260206004820152602d60248201527f576974686472617761626c653a2063616e6e6f7420776974686472617720746f60448201526c207a65726f206164647265737360981b606482015260840161068e565b6001600160a01b03821615612265576040516370a0823160e01b815282906000906001600160a01b038316906370a082319061215c903090600401612bf0565b602060405180830381865afa158015612179573d6000803e3d6000fd5b505050506040513d601f19601f8201168201806040525081019061219d919061341e565b9050600081116121eb5760405162461bcd60e51b8152602060048201526025602482015260008051602061351a833981519152604482015264045524332360dc1b606482015260840161068e565b60405163a9059cbb60e01b81526001600160a01b0384811660048301526024820183905283169063a9059cbb906044016020604051808303816000875af115801561223a573d6000803e3d6000fd5b505050506040513d601f19601f8201168201806040525081019061225e91906133b3565b5050505050565b47806122ad5760405162461bcd60e51b8152602060048201526023602482015260008051602061351a83398151915260448201526208aa8960eb1b606482015260840161068e565b6040516001600160a01b0383169082156108fc029083906000818181858888f19350505050158015610fb6573d6000803e3d6000fd5b600a5460ff1661232c5760405162461bcd60e51b815260206004820152601460248201527314185d5cd8589b194e881b9bdd081c185d5cd95960621b604482015260640161068e565b600a805460ff191690557f5db9ee0a495bf2e6ff9c91a7834c1ba4fdd244a5e8aa4e537bd38aeae4b073aa335b6040516123669190612bf0565b60405180910390a1565b600a80546001600160a01b03838116610100818102610100600160a81b031985161790945560405193909204169182907f8be0079c531659141344cd1fd0a4f28419497f9722a3daafe3b4186f6b6457e090600090a35050565b600a5460ff16156123ed5760405162461bcd60e51b815260040161068e90613049565b600a805460ff191660011790557f62e78cea01bee320cd4e420270b5ea74000d11b0c9f74754ebdbfc544b05a2586123593390565b816001600160a01b0316836001600160a01b03160361247f5760405162461bcd60e51b815260206004820152601960248201527822a9219b99189d1030b8383937bb32903a379031b0b63632b960391b604482015260640161068e565b6001600160a01b03838116600081815260056020908152604080832094871680845294825291829020805460ff191686151590811790915591519182527f17307eab39ab6107e8899845ad3d59bd9653f200f220920489ca2b5937696c31910160405180910390a3505050565b6124f7848484611f1b565b612503848484846125e2565b610fb65760405162461bcd60e51b815260040161068e90613437565b600061252a600c5490565b905060145481111561254e5760405162461bcd60e51b815260040161068e906130e7565b61255c600c80546001019055565b6109a182826126e3565b601a5460ff16158061257f57506001600160a01b038316155b6125d75760405162461bcd60e51b8152602060048201526024808201527f506c616e6574486f7273654e46543a207472616e7366657273206172652070616044820152631d5cd95960e21b606482015260840161068e565b6107f28383836126fd565b60006001600160a01b0384163b156126d857604051630a85bd0160e11b81526001600160a01b0385169063150b7a0290612626903390899088908890600401613489565b6020604051808303816000875af1925050508015612661575060408051601f3d908101601f1916820190925261265e918101906134c6565b60015b6126be573d80801561268f576040519150601f19603f3d011682016040523d82523d6000602084013e612694565b606091505b5080516000036126b65760405162461bcd60e51b815260040161068e90613437565b805181602001fd5b6001600160e01b031916630a85bd0160e11b149050611f13565b506001949350505050565b6109a18282604051806020016040528060008152506127b5565b6001600160a01b0383166127585761275381600880546000838152600960205260408120829055600182018355919091527ff3f7a9fe364faab93b216da50a3214154f22a0a2b415b23a84c8169e8b636ee30155565b61277b565b816001600160a01b0316836001600160a01b03161461277b5761277b83826127e8565b6001600160a01b038216612792576107f281612885565b826001600160a01b0316826001600160a01b0316146107f2576107f28282612934565b6127bf8383612978565b6127cc60008484846125e2565b6107f25760405162461bcd60e51b815260040161068e90613437565b600060016127f584610d98565b6127ff9190613407565b600083815260076020526040902054909150808214612852576001600160a01b03841660009081526006602090815260408083208584528252808320548484528184208190558352600790915290208190555b5060009182526007602090815260408084208490556001600160a01b039094168352600681528383209183525290812055565b60085460009061289790600190613407565b600083815260096020526040812054600880549394509092849081106128bf576128bf6131ca565b9060005260206000200154905080600883815481106128e0576128e06131ca565b6000918252602080832090910192909255828152600990915260408082208490558582528120556008805480612918576129186134e3565b6001900381819060005260206000200160009055905550505050565b600061293f83610d98565b6001600160a01b039093166000908152600660209081526040808320868452825280832085905593825260079052919091209190915550565b6001600160a01b0382166129ce5760405162461bcd60e51b815260206004820181905260248201527f4552433732313a206d696e7420746f20746865207a65726f2061646472657373604482015260640161068e565b6129d7816115f9565b15612a235760405162461bcd60e51b815260206004820152601c60248201527b115490cdcc8c4e881d1bdad95b88185b1c9958591e481b5a5b9d195960221b604482015260640161068e565b612a2f60008383612566565b6001600160a01b0382166000908152600360205260408120805460019290612a58908490613089565b909155505060008181526002602052604080822080546001600160a01b0319166001600160a01b03861690811790915590518392906000805160206134fa833981519152908290a45050565b828054612ab090612fda565b90600052602060002090601f016020900481019282612ad25760008555612b18565b82601f10612aeb57805160ff1916838001178555612b18565b82800160010185558215612b18579182015b82811115612b18578251825591602001919060010190612afd565b50612b24929150612b28565b5090565b5b80821115612b245760008155600101612b29565b6001600160e01b031981168114610c9c57600080fd5b600060208284031215612b6557600080fd5b8135612b7081612b3d565b9392505050565b6000815180845260005b81811015612b9d57602081850181015186830182015201612b81565b81811115612baf576000602083870101525b50601f01601f19169290920160200192915050565b602081526000612b706020830184612b77565b600060208284031215612be957600080fd5b5035919050565b6001600160a01b0391909116815260200190565b80356001600160a01b038116811461133b57600080fd5b60008060408385031215612c2e57600080fd5b612c3783612c04565b946020939093013593505050565b634e487b7160e01b600052604160045260246000fd5b604051601f8201601f191681016001600160401b0381118282101715612c8357612c83612c45565b604052919050565b60006001600160401b03831115612ca457612ca4612c45565b612cb7601f8401601f1916602001612c5b565b9050828152838383011115612ccb57600080fd5b828260208301376000602084830101529392505050565b600082601f830112612cf357600080fd5b612b7083833560208501612c8b565b600060208284031215612d1457600080fd5b81356001600160401b03811115612d2a57600080fd5b611f1384828501612ce2565b600080600060608486031215612d4b57600080fd5b612d5484612c04565b9250612d6260208501612c04565b9150604084013590509250925092565b60008060408385031215612d8557600080fd5b612d8e83612c04565b9150612d9c60208401612c04565b90509250929050565b8015158114610c9c57600080fd5b600060208284031215612dc557600080fd5b8135612b7081612da5565b600060208284031215612de257600080fd5b612b7082612c04565b60008060408385031215612dfe57600080fd5b82356001600160401b03811115612e1457600080fd5b612e2085828601612ce2565b95602094909401359450505050565b60008060408385031215612e4257600080fd5b612e4b83612c04565b91506020830135612e5b81612da5565b809150509250929050565b60008060008060808587031215612e7c57600080fd5b612e8585612c04565b9350612e9360208601612c04565b92506040850135915060608501356001600160401b03811115612eb557600080fd5b8501601f81018713612ec657600080fd5b612ed587823560208401612c8b565b91505092959194509250565b60006020808385031215612ef457600080fd5b82356001600160401b0380821115612f0b57600080fd5b818501915085601f830112612f1f57600080fd5b813581811115612f3157612f31612c45565b8060051b9150612f42848301612c5b565b8181529183018401918481019088841115612f5c57600080fd5b938501935b83851015612f8157612f7285612c04565b82529385019390850190612f61565b98975050505050505050565b60008060408385031215612fa057600080fd5b612fa983612c04565b915060208301356001600160401b03811115612fc457600080fd5b612fd085828601612ce2565b9150509250929050565b600181811c90821680612fee57607f821691505b60208210810361300e57634e487b7160e01b600052602260045260246000fd5b50919050565b6020808252818101527f4f776e61626c653a2063616c6c6572206973206e6f7420746865206f776e6572604082015260600190565b60208082526010908201526f14185d5cd8589b194e881c185d5cd95960821b604082015260600190565b634e487b7160e01b600052601160045260246000fd5b6000821982111561309c5761309c613073565b500190565b60208082526026908201527f506c616e6574486f7273654e46543a2065786365656473206d6178206d696e74604082015265081b1a5b5a5d60d21b606082015260800190565b60208082526022908201527f506c616e6574486f7273654e46543a2065786365656473206d617820737570706040820152616c7960f01b606082015260800190565b60208082526031908201527f4552433732313a207472616e736665722063616c6c6572206973206e6f74206f6040820152701ddb995c881b9bdc88185c1c1c9bdd9959607a1b606082015260800190565b60208082526030908201527f576974686472617761626c653a207a65726f2061646472657373206973206e6f60408201526f3a1030b71022a9219918103a37b5b2b760811b606082015260800190565b634e487b7160e01b600052603260045260246000fd5b6000600182016131f2576131f2613073565b5060010190565b6020808252602f908201527f4552433732314d657461646174613a2055524920717565727920666f72206e6f60408201526e3732bc34b9ba32b73a103a37b5b2b760891b606082015260800190565b8054600090600181811c908083168061326257607f831692505b6020808410820361328357634e487b7160e01b600052602260045260246000fd5b81801561329757600181146132a8576132d4565b60ff198616895284890196506132d4565b876000528160002060005b868110156132cc5781548b8201529085019083016132b3565b505084890196505b50505050505092915050565b6000612b708284613248565b60006133016132fb8386613248565b84613248565b64173539b7b760d91b8152600501949350505050565b6020808252818101527f506c616e6574486f7273654e46543a20696e76616c696420617267756d656e74604082015260600190565b60208082526023908201527f506c616e6574486f7273654e46543a2054696572204c696d697420526561636860408201526265642160e81b606082015260800190565b6001600160a01b039384168152919092166020820152604081019190915260600190565b6000602082840312156133c557600080fd5b8151612b7081612da5565b6020808252601f908201527f506c616e6574486f7273654e46543a205061796d656e74204661696c65642100604082015260600190565b60008282101561341957613419613073565b500390565b60006020828403121561343057600080fd5b5051919050565b60208082526032908201527f4552433732313a207472616e7366657220746f206e6f6e20455243373231526560408201527131b2b4bb32b91034b6b83632b6b2b73a32b960711b606082015260800190565b6001600160a01b03858116825284166020820152604081018390526080606082018190526000906134bc90830184612b77565b9695505050505050565b6000602082840312156134d857600080fd5b8151612b7081612b3d565b634e487b7160e01b600052603160045260246000fdfeddf252ad1be2c89b69c2b068fc378daa952ba7f163c4a11628f55a4df523b3ef576974686472617761626c653a2063616e6e6f74207769746864726177203020a26469706673582212201858c38dff72f89cf70ddf764a479666fdb5953a97c01d030a302bf1289e1d2664736f6c634300080d0033",
  "immutableReferences": {},
  "source": "// SPDX-License-Identifier: MIT\r\n\r\npragma solidity ^0.8.0;\r\n\r\nimport \"@openzeppelin/contracts/token/ERC20/ERC20.sol\";\r\nimport \"@openzeppelin/contracts/token/ERC721/ERC721.sol\";\r\nimport \"@openzeppelin/contracts/token/ERC721/extensions/ERC721Enumerable.sol\";\r\nimport \"@openzeppelin/contracts/security/Pausable.sol\";\r\nimport \"@openzeppelin/contracts/utils/Counters.sol\";\r\nimport \"@openzeppelin/contracts/utils/Strings.sol\";\r\nimport \"./Withdrawable.sol\";\r\n\r\ncontract PlanetHorseNFT is\r\n  ERC721,\r\n  ERC721Enumerable,\r\n  Pausable,\r\n  Withdrawable\r\n{\r\n  using Counters for Counters.Counter;\r\n  using Strings for uint256;\r\n\r\n  ERC20 public paymentCurrency;\r\n\r\n  Counters.Counter private _tokenIdCounter;\r\n  Counters.Counter private _commonSupply;\r\n  Counters.Counter private _rareSupply;\r\n  Counters.Counter private _srareSupply;\r\n  Counters.Counter private _epicSupply;\r\n  Counters.Counter private _legendSupply;\r\n  Counters.Counter private _slegendSupply;\r\n\r\n  string private _hiddenBaseURI;\r\n\r\n  uint256 private _maxSupply;\r\n  uint256 private _maxMintAmount;\r\n\r\n  uint256 private _whitelistSaleTime;\r\n  uint256 private _publicSaleTime;\r\n  uint256 private _unlimitedSaleTime;\r\n  uint256 private _revealTime;\r\n\r\n  bool private _transfersPaused;\r\n\r\n  struct TieredSupply {\r\n    uint16 COMMON_MAX_SUPPLY;\r\n    uint16 RARE_MAX_SUPPLY;\r\n    uint16 SRARE_MAX_SUPPLY;\r\n    uint16 EPIC_MAX_SUPPLY;\r\n    uint16 LEGEND_MAX_SUPPLY;\r\n    uint16 SLEGEND_MAX_SUPPLY;\r\n  }\r\n\r\n  TieredSupply internal _tieredSupply = TieredSupply({\r\n    COMMON_MAX_SUPPLY: 1800,\r\n    RARE_MAX_SUPPLY: 1650,\r\n    SRARE_MAX_SUPPLY: 1500,\r\n    EPIC_MAX_SUPPLY: 1125,\r\n    LEGEND_MAX_SUPPLY: 900,\r\n    SLEGEND_MAX_SUPPLY: 525\r\n  });\r\n\r\n  mapping(uint256 => bool) private _revealed;\r\n  mapping(address => bool) private _whitelist;\r\n  mapping(uint256 => string) private _tokenTiers;\r\n  mapping(uint256 => string) private _revealedTokenURIs;\r\n\r\n\r\n  constructor(\r\n    ERC20 paymentCurrency_,\r\n    uint256 maxSupply_,\r\n    uint256 maxMintAmount_,\r\n    uint256 whitelistSaleTime_,\r\n    uint256 publicSaleTime_,\r\n    uint256 unlimitedSaleTime_,\r\n    string memory hiddenBaseURI_,\r\n    bool transfersPaused_\r\n  )\r\n    ERC721(\"PlanetHorseNFT\", \"PHORSE NFT\")\r\n  { \r\n    paymentCurrency = paymentCurrency_;\r\n    _maxSupply = maxSupply_;\r\n    _maxMintAmount = maxMintAmount_;\r\n    _whitelistSaleTime = whitelistSaleTime_;\r\n    _publicSaleTime = publicSaleTime_;\r\n    _unlimitedSaleTime = unlimitedSaleTime_;\r\n    _hiddenBaseURI = hiddenBaseURI_;\r\n    _transfersPaused = transfersPaused_;\r\n\r\n    _tokenIdCounter.increment();\r\n  }\r\n\r\n  function maxSupply() public view returns (uint256) {\r\n    return _maxSupply;\r\n  }\r\n\r\n  function maxMintAmount() public view returns (uint256) {\r\n    return _maxMintAmount;\r\n  }\r\n\r\n  function pause() public onlyOwner {\r\n    _pause();\r\n  }\r\n\r\n  function unpause() public onlyOwner {\r\n    _unpause();\r\n  }\r\n\r\n  function mint(string memory rarity_) external whenNotPaused {\r\n    _checkRarityBeforeMint(rarity_);\r\n    if (block.timestamp < _unlimitedSaleTime) {\r\n      require(\r\n      balanceOf(msg.sender) + 1 <= _maxMintAmount,\r\n      \"PlanetHorseNFT: exceeds max mint limit\"\r\n    );\r\n    }\r\n    require(\r\n      totalSupply() + 1 <= _maxSupply,\r\n      \"PlanetHorseNFT: exceeds max supply\"\r\n    );\r\n    if (block.timestamp < _publicSaleTime) {\r\n      revert(\"PlanetHorseNFT: public sale hasn't started\");\r\n    }\r\n      uint256 tokenId = _tokenIdCounter.current();\r\n      _tokenTiers[tokenId] = rarity_;\r\n      _mintByRarity(msg.sender, rarity_);\r\n  }\r\n\r\n  function mintWhitelist(\r\n    string memory rarity_\r\n  )\r\n    external\r\n    whenNotPaused\r\n  {\r\n    _checkRarityBeforeMint(rarity_);\r\n    require(\r\n      _whitelist[msg.sender],\r\n      \"PlanetHorseNFT: sender not whitelisted\"\r\n    );\r\n    if (block.timestamp < _unlimitedSaleTime) {\r\n      require(\r\n      balanceOf(msg.sender) + 1 <= _maxMintAmount,\r\n      \"PlanetHorseNFT: exceeds max mint limit\"\r\n    );\r\n    }\r\n    require(\r\n      totalSupply() + 1 <= _maxSupply,\r\n      \"PlanetHorseNFT: exceeds max supply\"\r\n    );\r\n    if (block.timestamp < _whitelistSaleTime) {\r\n      revert(\"PlanetHorseNFT: whitelist sale hasn't started\");\r\n    }\r\n      uint256 tokenId = _tokenIdCounter.current();\r\n      _tokenTiers[tokenId] = rarity_;\r\n      _mintByRarity(msg.sender, rarity_);\r\n  }\r\n\r\n  function mintOwner(address to_, string memory rarity_) external onlyOwner {\r\n      _checkRarityBeforeMint(rarity_);\r\n      uint256 tokenId = _tokenIdCounter.current();\r\n      _tokenTiers[tokenId] = rarity_;\r\n      _safeMint(to_);\r\n  }\r\n\r\n  function _safeMint(address to) internal {\r\n    uint256 tokenId = _tokenIdCounter.current();\r\n    require(tokenId <= _maxSupply, 'PlanetHorseNFT: exceeds max supply');\r\n\r\n    _tokenIdCounter.increment();\r\n    _safeMint(to, tokenId);\r\n  }\r\n\r\n  function _checkRarityBeforeMint(string memory rarity_) internal pure {\r\n        require(\r\n        keccak256(bytes(rarity_)) == keccak256(\"common\") || \r\n        keccak256(bytes(rarity_)) == keccak256(\"rare\") || \r\n        keccak256(bytes(rarity_)) == keccak256(\"srare\") || \r\n        keccak256(bytes(rarity_)) == keccak256(\"epic\") || \r\n        keccak256(bytes(rarity_)) == keccak256(\"legend\") || \r\n        keccak256(bytes(rarity_)) == keccak256(\"slegend\"), \"PlanetHorseNFT: invalid argument\"\r\n        );\r\n  }\r\n\r\n  function _mintByRarity(address minter_, string memory rarity_) internal whenNotPaused {\r\n      if (keccak256(bytes(rarity_)) == keccak256(\"common\")) {\r\n        uint16 tierSupply = uint16(_commonSupply.current());\r\n        require(tierSupply < _tieredSupply.COMMON_MAX_SUPPLY, \"PlanetHorseNFT: Tier Limit Reached!\");\r\n        require(paymentCurrency.transferFrom(minter_, address(this), 5000000), \"PlanetHorseNFT: Payment Failed!\");\r\n        _commonSupply.increment();\r\n        _safeMint(minter_);       \r\n      } else if (keccak256(bytes(rarity_)) == keccak256(\"rare\")) {\r\n        uint16 tierSupply = uint16(_rareSupply.current());\r\n        require(tierSupply < _tieredSupply.RARE_MAX_SUPPLY, \"PlanetHorseNFT: Tier Limit Reached!\");\r\n        require(paymentCurrency.transferFrom(minter_, address(this), 7500000), \"PlanetHorseNFT: Payment Failed!\");\r\n        _rareSupply.increment();\r\n        _safeMint(minter_);\r\n      } else if (keccak256(bytes(rarity_)) == keccak256(\"srare\")) {\r\n        uint16 tierSupply = uint16(_srareSupply.current());\r\n        require(tierSupply < _tieredSupply.SRARE_MAX_SUPPLY, \"PlanetHorseNFT: Tier Limit Reached!\");\r\n        require(paymentCurrency.transferFrom(minter_, address(this), 12000000), \"PlanetHorseNFT: Payment Failed!\");\r\n        _srareSupply.increment();\r\n        _safeMint(minter_);\r\n      } else if (keccak256(bytes(rarity_)) == keccak256(\"epic\")) {\r\n        uint16 tierSupply = uint16(_epicSupply.current());\r\n        require(tierSupply < _tieredSupply.EPIC_MAX_SUPPLY, \"PlanetHorseNFT: Tier Limit Reached!\");\r\n        require(paymentCurrency.transferFrom(minter_, address(this), 15000000), \"PlanetHorseNFT: Payment Failed!\");\r\n        _epicSupply.increment();\r\n        _safeMint(minter_);\r\n      } else if (keccak256(bytes(rarity_)) == keccak256(\"legend\")) {\r\n        uint16 tierSupply = uint16(_legendSupply.current());\r\n        require(tierSupply < _tieredSupply.LEGEND_MAX_SUPPLY, \"PlanetHorseNFT: Tier Limit Reached!\");\r\n        require(paymentCurrency.transferFrom(minter_, address(this), 30000000), \"PlanetHorseNFT: Payment Failed!\");\r\n        _legendSupply.increment();\r\n        _safeMint(minter_);\r\n      } else if (keccak256(bytes(rarity_)) == keccak256(\"slegend\")) {\r\n        uint16 tierSupply = uint16(_slegendSupply.current());\r\n        require(tierSupply < _tieredSupply.SLEGEND_MAX_SUPPLY, \"PlanetHorseNFT: Tier Limit Reached!\");\r\n        require(paymentCurrency.transferFrom(minter_, address(this), 50000000), \"PlanetHorseNFT: Payment Failed!\");\r\n        _slegendSupply.increment();\r\n        _safeMint(minter_);\r\n      } else {\r\n        revert(\"PlanetHorseNFT: invalid argument\");\r\n      }\r\n  }\r\n\r\n  function tokenURI(uint256 tokenId)\r\n    public\r\n    view\r\n    override\r\n    returns (string memory)\r\n  {\r\n    require(\r\n      _exists(tokenId),\r\n      \"ERC721Metadata: URI query for nonexistent token\"\r\n    );\r\n\r\n    if (_revealed[tokenId]) {\r\n      return\r\n        string(\r\n          abi.encodePacked(_revealedTokenURIs[tokenId])\r\n        );\r\n    } else {\r\n      return\r\n        string(\r\n          abi.encodePacked(_hiddenBaseURI, string(_tokenTiers[tokenId]), \".json\")\r\n        );\r\n    }\r\n  }\r\n\r\n  function tokenTierById(uint256 tokenId)\r\n    public\r\n    view\r\n    returns (string memory)\r\n  {\r\n    require(\r\n      _exists(tokenId),\r\n      \"ERC721Metadata: URI query for nonexistent token\"\r\n    );\r\n    return string(_tokenTiers[tokenId]);\r\n  }\r\n\r\n  function transfersPaused() public view returns (bool) {\r\n    return _transfersPaused;\r\n  }\r\n\r\n  function setTransfersPaused(bool transfersPaused_) external onlyOwner {\r\n    _transfersPaused = transfersPaused_;\r\n  }\r\n\r\n  function _beforeTokenTransfer(\r\n    address from,\r\n    address to,\r\n    uint256 tokenId\r\n  ) internal override(ERC721, ERC721Enumerable) {\r\n    require(\r\n      !_transfersPaused || from == address(0),\r\n      'PlanetHorseNFT: transfers are paused'\r\n    );\r\n\r\n    super._beforeTokenTransfer(from, to, tokenId);\r\n  }\r\n\r\n  function supportsInterface(bytes4 interfaceId)\r\n    public\r\n    view\r\n    override(ERC721, ERC721Enumerable)\r\n    returns (bool)\r\n  {\r\n    return\r\n      ERC721.supportsInterface(interfaceId) ||\r\n      ERC721Enumerable.supportsInterface(interfaceId);\r\n  }\r\n\r\n  function setMaxSupply(uint256 maxSupply_) external onlyOwner {\r\n    _maxSupply = maxSupply_;\r\n  }\r\n\r\n  function setMaxMintAmount(uint256 maxMintAmount_) external onlyOwner {\r\n    _maxMintAmount = maxMintAmount_;\r\n  }\r\n\r\n  function setHiddenURI(string memory baseURI)\r\n    external\r\n    onlyOwner\r\n  {\r\n    _hiddenBaseURI = baseURI;\r\n  }\r\n\r\n  function setRevealedURI(string memory baseURI, uint256 tokenId)\r\n    external\r\n    onlyOwner\r\n  {\r\n    _revealedTokenURIs[tokenId] = baseURI;\r\n\r\n  }\r\n\r\n  function reveal(uint256 tokenId)\r\n    external\r\n    whenNotPaused\r\n  {\r\n    require(ownerOf(tokenId) == msg.sender, \"PlanetHorseNFT: only NFT owner can unbox\");\r\n    if (block.timestamp < _revealTime) {\r\n      revert(\"PlanetHorseNFT: box opening hasn't started\");\r\n    }\r\n     _revealed[tokenId] = true;\r\n  }\r\n\r\n\r\n  function registerWhitelist(address[] memory addrs) external onlyOwner {\r\n        for(uint256 i = 0; i < addrs.length; i++)\r\n            _whitelist[addrs[i]] = true;\r\n    }\r\n\r\n  function whitelistSaleTime() public view returns (uint256) {\r\n    return _whitelistSaleTime;\r\n  }\r\n\r\n  function setWhitelistSaleTime(uint256 whitelistSaleTime_) external onlyOwner {\r\n    _whitelistSaleTime = whitelistSaleTime_;\r\n  }\r\n\r\n  function publicSaleTime() public view returns (uint256) {\r\n    return _publicSaleTime;\r\n  }\r\n\r\n  function setPublicSaleTime(uint256 publicSaleTime_) external onlyOwner {\r\n    _publicSaleTime = publicSaleTime_;\r\n  }\r\n\r\n  function unlimitedSaleTime() public view returns (uint256) {\r\n    return _unlimitedSaleTime;\r\n  }\r\n\r\n  function setunlimitedSaleTime(uint256 unlimitedSaleTime_) external onlyOwner {\r\n    _unlimitedSaleTime = unlimitedSaleTime_;\r\n  }\r\n\r\n    function revealTime() public view returns (uint256) {\r\n    return _revealTime;\r\n  }\r\n\r\n  function setRevealTime(uint256 revealTime_) external onlyOwner {\r\n    _revealTime = revealTime_;\r\n  }\r\n\r\n}",
  "sourcePath": "/home/taurinos/workspace/nft-presale/contracts/PlanetHorseNFT.sol",
  "compiler": {
    "name": "solc",
    "version": "0.8.13+commit.abaa5c0e.Emscripten.clang"
  },
  "schemaVersion": "3.4.6",
  "updatedAt": "2022-04-06T20:41:01.993Z",
  "networkType": "ethereum",
  "devdoc": {
    "kind": "dev",
    "methods": {
      "approve(address,uint256)": {
        "details": "See {IERC721-approve}."
      },
      "balanceOf(address)": {
        "details": "See {IERC721-balanceOf}."
      },
      "getApproved(uint256)": {
        "details": "See {IERC721-getApproved}."
      },
      "isApprovedForAll(address,address)": {
        "details": "See {IERC721-isApprovedForAll}."
      },
      "name()": {
        "details": "See {IERC721Metadata-name}."
      },
      "owner()": {
        "details": "Returns the address of the current owner."
      },
      "ownerOf(uint256)": {
        "details": "See {IERC721-ownerOf}."
      },
      "paused()": {
        "details": "Returns true if the contract is paused, and false otherwise."
      },
      "renounceOwnership()": {
        "details": "Leaves the contract without owner. It will not be possible to call `onlyOwner` functions anymore. Can only be called by the current owner. NOTE: Renouncing ownership will leave the contract without an owner, thereby removing any functionality that is only available to the owner."
      },
      "safeTransferFrom(address,address,uint256)": {
        "details": "See {IERC721-safeTransferFrom}."
      },
      "safeTransferFrom(address,address,uint256,bytes)": {
        "details": "See {IERC721-safeTransferFrom}."
      },
      "setApprovalForAll(address,bool)": {
        "details": "See {IERC721-setApprovalForAll}."
      },
      "symbol()": {
        "details": "See {IERC721Metadata-symbol}."
      },
      "tokenByIndex(uint256)": {
        "details": "See {IERC721Enumerable-tokenByIndex}."
      },
      "tokenOfOwnerByIndex(address,uint256)": {
        "details": "See {IERC721Enumerable-tokenOfOwnerByIndex}."
      },
      "tokenURI(uint256)": {
        "details": "See {IERC721Metadata-tokenURI}."
      },
      "totalSupply()": {
        "details": "See {IERC721Enumerable-totalSupply}."
      },
      "transferFrom(address,address,uint256)": {
        "details": "See {IERC721-transferFrom}."
      },
      "transferOwnership(address)": {
        "details": "Transfers ownership of the contract to a new account (`newOwner`). Can only be called by the current owner."
      }
    },
    "version": 1
  },
  "userdoc": {
    "kind": "user",
    "methods": {},
    "version": 1
  }
}