{
  "contractName": "PlanetHorseNFT",
  "abi": [
    {
      "inputs": [
        {
          "internalType": "contract ERC20",
          "name": "paymentCurrency_",
          "type": "address"
        },
        {
          "internalType": "uint256",
          "name": "maxSupply_",
          "type": "uint256"
        },
        {
          "internalType": "uint256",
          "name": "maxMintAmount_",
          "type": "uint256"
        },
        {
          "internalType": "uint256",
          "name": "whitelistSaleTime_",
          "type": "uint256"
        },
        {
          "internalType": "uint256",
          "name": "publicSaleTime_",
          "type": "uint256"
        },
        {
          "internalType": "uint256",
          "name": "unlimitedSaleTime_",
          "type": "uint256"
        },
        {
          "internalType": "string",
          "name": "hiddenBaseURI_",
          "type": "string"
        },
        {
          "internalType": "bool",
          "name": "transfersPaused_",
          "type": "bool"
        }
      ],
      "stateMutability": "nonpayable",
      "type": "constructor"
    },
    {
      "anonymous": false,
      "inputs": [
        {
          "indexed": true,
          "internalType": "address",
          "name": "owner",
          "type": "address"
        },
        {
          "indexed": true,
          "internalType": "address",
          "name": "approved",
          "type": "address"
        },
        {
          "indexed": true,
          "internalType": "uint256",
          "name": "tokenId",
          "type": "uint256"
        }
      ],
      "name": "Approval",
      "type": "event"
    },
    {
      "anonymous": false,
      "inputs": [
        {
          "indexed": true,
          "internalType": "address",
          "name": "owner",
          "type": "address"
        },
        {
          "indexed": true,
          "internalType": "address",
          "name": "operator",
          "type": "address"
        },
        {
          "indexed": false,
          "internalType": "bool",
          "name": "approved",
          "type": "bool"
        }
      ],
      "name": "ApprovalForAll",
      "type": "event"
    },
    {
      "anonymous": false,
      "inputs": [
        {
          "indexed": true,
          "internalType": "address",
          "name": "previousOwner",
          "type": "address"
        },
        {
          "indexed": true,
          "internalType": "address",
          "name": "newOwner",
          "type": "address"
        }
      ],
      "name": "OwnershipTransferred",
      "type": "event"
    },
    {
      "anonymous": false,
      "inputs": [
        {
          "indexed": false,
          "internalType": "address",
          "name": "account",
          "type": "address"
        }
      ],
      "name": "Paused",
      "type": "event"
    },
    {
      "anonymous": false,
      "inputs": [
        {
          "indexed": true,
          "internalType": "address",
          "name": "from",
          "type": "address"
        },
        {
          "indexed": false,
          "internalType": "uint256",
          "name": "tokenId",
          "type": "uint256"
        },
        {
          "indexed": false,
          "internalType": "string",
          "name": "tokenTier",
          "type": "string"
        }
      ],
      "name": "RevealRequested",
      "type": "event"
    },
    {
      "anonymous": false,
      "inputs": [
        {
          "indexed": true,
          "internalType": "address",
          "name": "from",
          "type": "address"
        },
        {
          "indexed": true,
          "internalType": "address",
          "name": "to",
          "type": "address"
        },
        {
          "indexed": true,
          "internalType": "uint256",
          "name": "tokenId",
          "type": "uint256"
        }
      ],
      "name": "Transfer",
      "type": "event"
    },
    {
      "anonymous": false,
      "inputs": [
        {
          "indexed": false,
          "internalType": "address",
          "name": "account",
          "type": "address"
        }
      ],
      "name": "Unpaused",
      "type": "event"
    },
    {
      "inputs": [
        {
          "internalType": "address",
          "name": "_toAdd",
          "type": "address"
        }
      ],
      "name": "addAuthorized",
      "outputs": [],
      "stateMutability": "nonpayable",
      "type": "function"
    },
    {
      "inputs": [
        {
          "internalType": "address",
          "name": "to",
          "type": "address"
        },
        {
          "internalType": "uint256",
          "name": "tokenId",
          "type": "uint256"
        }
      ],
      "name": "approve",
      "outputs": [],
      "stateMutability": "nonpayable",
      "type": "function"
    },
    {
      "inputs": [
        {
          "internalType": "address",
          "name": "",
          "type": "address"
        }
      ],
      "name": "authorized",
      "outputs": [
        {
          "internalType": "bool",
          "name": "",
          "type": "bool"
        }
      ],
      "stateMutability": "view",
      "type": "function",
      "constant": true
    },
    {
      "inputs": [
        {
          "internalType": "address",
          "name": "owner",
          "type": "address"
        }
      ],
      "name": "balanceOf",
      "outputs": [
        {
          "internalType": "uint256",
          "name": "",
          "type": "uint256"
        }
      ],
      "stateMutability": "view",
      "type": "function",
      "constant": true
    },
    {
      "inputs": [
        {
          "internalType": "uint256",
          "name": "tokenId",
          "type": "uint256"
        }
      ],
      "name": "getApproved",
      "outputs": [
        {
          "internalType": "address",
          "name": "",
          "type": "address"
        }
      ],
      "stateMutability": "view",
      "type": "function",
      "constant": true
    },
    {
      "inputs": [
        {
          "internalType": "address",
          "name": "owner",
          "type": "address"
        },
        {
          "internalType": "address",
          "name": "operator",
          "type": "address"
        }
      ],
      "name": "isApprovedForAll",
      "outputs": [
        {
          "internalType": "bool",
          "name": "",
          "type": "bool"
        }
      ],
      "stateMutability": "view",
      "type": "function",
      "constant": true
    },
    {
      "inputs": [],
      "name": "name",
      "outputs": [
        {
          "internalType": "string",
          "name": "",
          "type": "string"
        }
      ],
      "stateMutability": "view",
      "type": "function",
      "constant": true
    },
    {
      "inputs": [],
      "name": "owner",
      "outputs": [
        {
          "internalType": "address",
          "name": "",
          "type": "address"
        }
      ],
      "stateMutability": "view",
      "type": "function",
      "constant": true
    },
    {
      "inputs": [
        {
          "internalType": "uint256",
          "name": "tokenId",
          "type": "uint256"
        }
      ],
      "name": "ownerOf",
      "outputs": [
        {
          "internalType": "address",
          "name": "",
          "type": "address"
        }
      ],
      "stateMutability": "view",
      "type": "function",
      "constant": true
    },
    {
      "inputs": [],
      "name": "paused",
      "outputs": [
        {
          "internalType": "bool",
          "name": "",
          "type": "bool"
        }
      ],
      "stateMutability": "view",
      "type": "function",
      "constant": true
    },
    {
      "inputs": [],
      "name": "paymentCurrency",
      "outputs": [
        {
          "internalType": "contract ERC20",
          "name": "",
          "type": "address"
        }
      ],
      "stateMutability": "view",
      "type": "function",
      "constant": true
    },
    {
      "inputs": [
        {
          "internalType": "address",
          "name": "_toRemove",
          "type": "address"
        }
      ],
      "name": "removeAuthorized",
      "outputs": [],
      "stateMutability": "nonpayable",
      "type": "function"
    },
    {
      "inputs": [],
      "name": "renounceOwnership",
      "outputs": [],
      "stateMutability": "nonpayable",
      "type": "function"
    },
    {
      "inputs": [
        {
          "internalType": "address",
          "name": "from",
          "type": "address"
        },
        {
          "internalType": "address",
          "name": "to",
          "type": "address"
        },
        {
          "internalType": "uint256",
          "name": "tokenId",
          "type": "uint256"
        }
      ],
      "name": "safeTransferFrom",
      "outputs": [],
      "stateMutability": "nonpayable",
      "type": "function"
    },
    {
      "inputs": [
        {
          "internalType": "address",
          "name": "from",
          "type": "address"
        },
        {
          "internalType": "address",
          "name": "to",
          "type": "address"
        },
        {
          "internalType": "uint256",
          "name": "tokenId",
          "type": "uint256"
        },
        {
          "internalType": "bytes",
          "name": "_data",
          "type": "bytes"
        }
      ],
      "name": "safeTransferFrom",
      "outputs": [],
      "stateMutability": "nonpayable",
      "type": "function"
    },
    {
      "inputs": [
        {
          "internalType": "address",
          "name": "operator",
          "type": "address"
        },
        {
          "internalType": "bool",
          "name": "approved",
          "type": "bool"
        }
      ],
      "name": "setApprovalForAll",
      "outputs": [],
      "stateMutability": "nonpayable",
      "type": "function"
    },
    {
      "inputs": [],
      "name": "symbol",
      "outputs": [
        {
          "internalType": "string",
          "name": "",
          "type": "string"
        }
      ],
      "stateMutability": "view",
      "type": "function",
      "constant": true
    },
    {
      "inputs": [
        {
          "internalType": "uint256",
          "name": "index",
          "type": "uint256"
        }
      ],
      "name": "tokenByIndex",
      "outputs": [
        {
          "internalType": "uint256",
          "name": "",
          "type": "uint256"
        }
      ],
      "stateMutability": "view",
      "type": "function",
      "constant": true
    },
    {
      "inputs": [
        {
          "internalType": "address",
          "name": "owner",
          "type": "address"
        },
        {
          "internalType": "uint256",
          "name": "index",
          "type": "uint256"
        }
      ],
      "name": "tokenOfOwnerByIndex",
      "outputs": [
        {
          "internalType": "uint256",
          "name": "",
          "type": "uint256"
        }
      ],
      "stateMutability": "view",
      "type": "function",
      "constant": true
    },
    {
      "inputs": [],
      "name": "totalSupply",
      "outputs": [
        {
          "internalType": "uint256",
          "name": "",
          "type": "uint256"
        }
      ],
      "stateMutability": "view",
      "type": "function",
      "constant": true
    },
    {
      "inputs": [
        {
          "internalType": "address",
          "name": "from",
          "type": "address"
        },
        {
          "internalType": "address",
          "name": "to",
          "type": "address"
        },
        {
          "internalType": "uint256",
          "name": "tokenId",
          "type": "uint256"
        }
      ],
      "name": "transferFrom",
      "outputs": [],
      "stateMutability": "nonpayable",
      "type": "function"
    },
    {
      "inputs": [
        {
          "internalType": "address",
          "name": "newOwner",
          "type": "address"
        }
      ],
      "name": "transferOwnership",
      "outputs": [],
      "stateMutability": "nonpayable",
      "type": "function"
    },
    {
      "inputs": [],
      "name": "withdraw",
      "outputs": [],
      "stateMutability": "nonpayable",
      "type": "function"
    },
    {
      "inputs": [
        {
          "internalType": "address",
          "name": "to",
          "type": "address"
        }
      ],
      "name": "withdraw",
      "outputs": [],
      "stateMutability": "nonpayable",
      "type": "function"
    },
    {
      "inputs": [
        {
          "internalType": "address",
          "name": "token",
          "type": "address"
        },
        {
          "internalType": "address",
          "name": "to",
          "type": "address"
        }
      ],
      "name": "withdrawToken",
      "outputs": [],
      "stateMutability": "nonpayable",
      "type": "function"
    },
    {
      "inputs": [
        {
          "internalType": "address",
          "name": "token",
          "type": "address"
        }
      ],
      "name": "withdrawToken",
      "outputs": [],
      "stateMutability": "nonpayable",
      "type": "function"
    },
    {
      "inputs": [],
      "name": "maxSupply",
      "outputs": [
        {
          "internalType": "uint256",
          "name": "",
          "type": "uint256"
        }
      ],
      "stateMutability": "view",
      "type": "function",
      "constant": true
    },
    {
      "inputs": [],
      "name": "maxMintAmount",
      "outputs": [
        {
          "internalType": "uint256",
          "name": "",
          "type": "uint256"
        }
      ],
      "stateMutability": "view",
      "type": "function",
      "constant": true
    },
    {
      "inputs": [],
      "name": "pause",
      "outputs": [],
      "stateMutability": "nonpayable",
      "type": "function"
    },
    {
      "inputs": [],
      "name": "unpause",
      "outputs": [],
      "stateMutability": "nonpayable",
      "type": "function"
    },
    {
      "inputs": [
        {
          "internalType": "string",
          "name": "rarity_",
          "type": "string"
        }
      ],
      "name": "mint",
      "outputs": [],
      "stateMutability": "nonpayable",
      "type": "function"
    },
    {
      "inputs": [
        {
          "internalType": "string",
          "name": "rarity_",
          "type": "string"
        }
      ],
      "name": "mintWhitelist",
      "outputs": [],
      "stateMutability": "nonpayable",
      "type": "function"
    },
    {
      "inputs": [
        {
          "internalType": "address",
          "name": "to_",
          "type": "address"
        },
        {
          "internalType": "string",
          "name": "rarity_",
          "type": "string"
        }
      ],
      "name": "mintOwner",
      "outputs": [],
      "stateMutability": "nonpayable",
      "type": "function"
    },
    {
      "inputs": [
        {
          "internalType": "uint256",
          "name": "tokenId",
          "type": "uint256"
        }
      ],
      "name": "tokenURI",
      "outputs": [
        {
          "internalType": "string",
          "name": "",
          "type": "string"
        }
      ],
      "stateMutability": "view",
      "type": "function",
      "constant": true
    },
    {
      "inputs": [
        {
          "internalType": "uint256",
          "name": "tokenId",
          "type": "uint256"
        }
      ],
      "name": "tokenTierById",
      "outputs": [
        {
          "internalType": "string",
          "name": "",
          "type": "string"
        }
      ],
      "stateMutability": "view",
      "type": "function",
      "constant": true
    },
    {
      "inputs": [],
      "name": "transfersPaused",
      "outputs": [
        {
          "internalType": "bool",
          "name": "",
          "type": "bool"
        }
      ],
      "stateMutability": "view",
      "type": "function",
      "constant": true
    },
    {
      "inputs": [
        {
          "internalType": "bool",
          "name": "transfersPaused_",
          "type": "bool"
        }
      ],
      "name": "setTransfersPaused",
      "outputs": [],
      "stateMutability": "nonpayable",
      "type": "function"
    },
    {
      "inputs": [
        {
          "internalType": "bytes4",
          "name": "interfaceId",
          "type": "bytes4"
        }
      ],
      "name": "supportsInterface",
      "outputs": [
        {
          "internalType": "bool",
          "name": "",
          "type": "bool"
        }
      ],
      "stateMutability": "view",
      "type": "function",
      "constant": true
    },
    {
      "inputs": [
        {
          "internalType": "uint256",
          "name": "maxSupply_",
          "type": "uint256"
        }
      ],
      "name": "setMaxSupply",
      "outputs": [],
      "stateMutability": "nonpayable",
      "type": "function"
    },
    {
      "inputs": [
        {
          "internalType": "uint256",
          "name": "maxMintAmount_",
          "type": "uint256"
        }
      ],
      "name": "setMaxMintAmount",
      "outputs": [],
      "stateMutability": "nonpayable",
      "type": "function"
    },
    {
      "inputs": [
        {
          "internalType": "string",
          "name": "baseURI",
          "type": "string"
        }
      ],
      "name": "setHiddenURI",
      "outputs": [],
      "stateMutability": "nonpayable",
      "type": "function"
    },
    {
      "inputs": [
        {
          "internalType": "string",
          "name": "baseURI",
          "type": "string"
        },
        {
          "internalType": "uint256",
          "name": "tokenId",
          "type": "uint256"
        }
      ],
      "name": "setRevealedURI",
      "outputs": [],
      "stateMutability": "nonpayable",
      "type": "function"
    },
    {
      "inputs": [
        {
          "internalType": "uint256",
          "name": "tokenId",
          "type": "uint256"
        }
      ],
      "name": "reveal",
      "outputs": [],
      "stateMutability": "nonpayable",
      "type": "function"
    },
    {
      "inputs": [
        {
          "internalType": "uint256",
          "name": "tokenId",
          "type": "uint256"
        }
      ],
      "name": "isRevealed",
      "outputs": [
        {
          "internalType": "bool",
          "name": "",
          "type": "bool"
        }
      ],
      "stateMutability": "view",
      "type": "function",
      "constant": true
    },
    {
      "inputs": [
        {
          "internalType": "address[]",
          "name": "addrs",
          "type": "address[]"
        }
      ],
      "name": "registerWhitelist",
      "outputs": [],
      "stateMutability": "nonpayable",
      "type": "function"
    },
    {
      "inputs": [],
      "name": "whitelistSaleTime",
      "outputs": [
        {
          "internalType": "uint256",
          "name": "",
          "type": "uint256"
        }
      ],
      "stateMutability": "view",
      "type": "function",
      "constant": true
    },
    {
      "inputs": [
        {
          "internalType": "uint256",
          "name": "whitelistSaleTime_",
          "type": "uint256"
        }
      ],
      "name": "setWhitelistSaleTime",
      "outputs": [],
      "stateMutability": "nonpayable",
      "type": "function"
    },
    {
      "inputs": [],
      "name": "publicSaleTime",
      "outputs": [
        {
          "internalType": "uint256",
          "name": "",
          "type": "uint256"
        }
      ],
      "stateMutability": "view",
      "type": "function",
      "constant": true
    },
    {
      "inputs": [
        {
          "internalType": "uint256",
          "name": "publicSaleTime_",
          "type": "uint256"
        }
      ],
      "name": "setPublicSaleTime",
      "outputs": [],
      "stateMutability": "nonpayable",
      "type": "function"
    },
    {
      "inputs": [],
      "name": "unlimitedSaleTime",
      "outputs": [
        {
          "internalType": "uint256",
          "name": "",
          "type": "uint256"
        }
      ],
      "stateMutability": "view",
      "type": "function",
      "constant": true
    },
    {
      "inputs": [
        {
          "internalType": "uint256",
          "name": "unlimitedSaleTime_",
          "type": "uint256"
        }
      ],
      "name": "setunlimitedSaleTime",
      "outputs": [],
      "stateMutability": "nonpayable",
      "type": "function"
    },
    {
      "inputs": [],
      "name": "revealTime",
      "outputs": [
        {
          "internalType": "uint256",
          "name": "",
          "type": "uint256"
        }
      ],
      "stateMutability": "view",
      "type": "function",
      "constant": true
    },
    {
      "inputs": [
        {
          "internalType": "uint256",
          "name": "revealTime_",
          "type": "uint256"
        }
      ],
      "name": "setRevealTime",
      "outputs": [],
      "stateMutability": "nonpayable",
      "type": "function"
    }
  ],
  "bytecode": "0x61014060405261070860805261067260a0526105dc60c05261046560e0526103846101005261020d61012052601d80546001600160601b0319166b020d0384046505dc067207081790553480156200005657600080fd5b5060405162003f7538038062003f758339810160408190526200007991620002b7565b604080518082018252600e81526d141b185b995d121bdc9cd953919560921b60208083019182528351808501909452600a845269141213d494d14813919560b21b908401528151919291620000d191600091620001e5565b508051620000e7906001906020840190620001e5565b5050600a805460ff1916905550620000ff3362000182565b6001600b55600d80546001600160a01b0319166001600160a01b038a161790556016879055601786905560188590556019849055601a83905581516200014d906015906020850190620001e5565b50601c805460ff191682151517905562000174600e620001dc602090811b62001a3517901c565b505050505050505062000435565b600a80546001600160a01b03838116610100818102610100600160a81b031985161790945560405193909204169182907f8be0079c531659141344cd1fd0a4f28419497f9722a3daafe3b4186f6b6457e090600090a35050565b80546001019055565b828054620001f390620003f9565b90600052602060002090601f01602090048101928262000217576000855562000262565b82601f106200023257805160ff191683800117855562000262565b8280016001018555821562000262579182015b828111156200026257825182559160200191906001019062000245565b506200027092915062000274565b5090565b5b8082111562000270576000815560010162000275565b634e487b7160e01b600052604160045260246000fd5b80518015158114620002b257600080fd5b919050565b600080600080600080600080610100898b031215620002d557600080fd5b88516001600160a01b0381168114620002ed57600080fd5b809850506020808a0151975060408a0151965060608a0151955060808a0151945060a08a0151935060c08a015160018060401b03808211156200032f57600080fd5b818c0191508c601f8301126200034457600080fd5b8151818111156200035957620003596200028b565b604051601f8201601f19908116603f011681019083821181831017156200038457620003846200028b565b816040528281528f868487010111156200039d57600080fd5b600093505b82841015620003c15784840186015181850187015292850192620003a2565b82841115620003d35760008684830101525b809750505050505050620003ea60e08a01620002a1565b90509295985092959890939650565b600181811c908216806200040e57607f821691505b6020821081036200042f57634e487b7160e01b600052602260045260246000fd5b50919050565b613b3080620004456000396000f3fe608060405234801561001057600080fd5b50600436106103275760003560e01c80636f8b44b0116101b8578063b918161111610104578063c87b56dd116100a2578063d85d3d271161007c578063d85d3d2714610699578063e985e9c5146106ac578063f2fde38b146106e8578063f9b8c3bd146106fb57600080fd5b8063c87b56dd1461066b578063cf1c316a1461067e578063d5abeb011461069157600080fd5b8063c1e28507116100de578063c1e285071461061f578063c2c0277014610632578063c2ca0ac514610645578063c83c71e01461065857600080fd5b8063b9181611146105e1578063ba829d7114610604578063bbaac02f1461060c57600080fd5b806389476069116101715780639a9fb5a61161014b5780639a9fb5a614610595578063a22cb465146105a8578063afdea6c2146105bb578063b88d4fde146105ce57600080fd5b806389476069146105645780638da5cb5b1461057757806395d89b411461058d57600080fd5b80636f8b44b0146105135780636fe9cde31461052657806370a0823114610539578063715018a61461054c57806382562d0b146105545780638456cb591461055c57600080fd5b80633aeac4e1116102775780634563f30a116102305780635055fbc31161020a5780635055fbc3146104bf57806351cff8d9146104e25780635c975abb146104f55780636352211e1461050057600080fd5b80634563f30a1461048e578063485d7d94146104995780634f6ccce7146104ac57600080fd5b80633aeac4e1146104325780633ccfd60b146104455780633d15cc6d1461044d5780633f4ba83a1461046057806342842e0e1461046857806344e46dff1461047b57600080fd5b806311b7e5e7116102e4578063239c70ae116102be578063239c70ae146103fc57806323b872dd146104045780632ecea7b7146104175780632f745c591461041f57600080fd5b806311b7e5e7146103cf57806318160ddd146103e25780632344be0a146103f457600080fd5b806301ffc9a71461032c57806306fdde0314610354578063081812fc14610369578063088a4ed014610394578063095ea7b3146103a95780630f49fe93146103bc575b600080fd5b61033f61033a3660046130e3565b61070e565b60405190151581526020015b60405180910390f35b61035c61072e565b60405161034b9190613154565b61037c610377366004613167565b6107c0565b6040516001600160a01b03909116815260200161034b565b6103a76103a2366004613167565b61085a565b005b6103a76103b7366004613197565b61088f565b6103a76103ca366004613280565b6109a4565b6103a76103dd366004613167565b610bad565b6008545b60405190815260200161034b565b6019546103e6565b6017546103e6565b6103a76104123660046132b5565b610be2565b6018546103e6565b6103e661042d366004613197565b610c13565b6103a76104403660046132f1565b610ca9565b6103a7610d0d565b600d5461037c906001600160a01b031681565b6103a7610d4a565b6103a76104763660046132b5565b610d82565b6103a7610489366004613332565b610d9d565b601c5460ff1661033f565b6103a76104a736600461334f565b610de0565b6103e66104ba366004613167565b610e6c565b61033f6104cd366004613167565b6000908152601e602052604090205460ff1690565b6103a76104f036600461334f565b610eff565b600a5460ff1661033f565b61037c61050e366004613167565b610f3d565b6103a7610521366004613167565b610fb4565b6103a761053436600461336a565b610fe9565b6103e661054736600461334f565b6110e5565b6103a761116c565b601a546103e6565b6103a76111a6565b6103a761057236600461334f565b6111de565b600a5461010090046001600160a01b031661037c565b61035c61123e565b6103a76105a3366004613167565b61124d565b6103a76105b63660046133af565b611282565b6103a76105c9366004613167565b61128d565b6103a76105dc3660046133e6565b6112c2565b61033f6105ef36600461334f565b600c6020526000908152604090205460ff1681565b601b546103e6565b6103a761061a366004613280565b6112fa565b6103a761062d366004613167565b61133d565b6103a7610640366004613462565b611372565b6103a7610653366004613167565b61140a565b61035c610666366004613167565b6115d2565b61035c610679366004613167565b6116a7565b6103a761068c36600461334f565b611755565b6016546103e6565b6103a76106a7366004613280565b6117cf565b61033f6106ba3660046132f1565b6001600160a01b03918216600090815260056020908152604080832093909416825291909152205460ff1690565b6103a76106f636600461334f565b611925565b6103a761070936600461350f565b6119c3565b600061071982611a3e565b80610728575061072882611a8e565b92915050565b60606000805461073d9061355d565b80601f01602080910402602001604051908101604052809291908181526020018280546107699061355d565b80156107b65780601f1061078b576101008083540402835291602001916107b6565b820191906000526020600020905b81548152906001019060200180831161079957829003601f168201915b5050505050905090565b6000818152600260205260408120546001600160a01b031661083e5760405162461bcd60e51b815260206004820152602c60248201527f4552433732313a20617070726f76656420717565727920666f72206e6f6e657860448201526b34b9ba32b73a103a37b5b2b760a11b60648201526084015b60405180910390fd5b506000908152600460205260409020546001600160a01b031690565b600a546001600160a01b0361010090910416331461088a5760405162461bcd60e51b815260040161083590613597565b601755565b600061089a82610f3d565b9050806001600160a01b0316836001600160a01b0316036109075760405162461bcd60e51b815260206004820152602160248201527f4552433732313a20617070726f76616c20746f2063757272656e74206f776e656044820152603960f91b6064820152608401610835565b336001600160a01b0382161480610923575061092381336106ba565b6109955760405162461bcd60e51b815260206004820152603860248201527f4552433732313a20617070726f76652063616c6c6572206973206e6f74206f7760448201527f6e6572206e6f7220617070726f76656420666f7220616c6c00000000000000006064820152608401610835565b61099f8383611ab3565b505050565b600a5460ff16156109c75760405162461bcd60e51b8152600401610835906135cc565b6002600b5403610a195760405162461bcd60e51b815260206004820152601f60248201527f5265656e7472616e637947756172643a207265656e7472616e742063616c6c006044820152606401610835565b6002600b55610a2781611b21565b33600090815260208052604090205460ff16610a945760405162461bcd60e51b815260206004820152602660248201527f506c616e6574486f7273654e46543a2073656e646572206e6f742077686974656044820152651b1a5cdd195960d21b6064820152608401610835565b601a54421015610ad357601754610aaa336110e5565b610ab590600161360c565b1115610ad35760405162461bcd60e51b815260040161083590613624565b601654600854610ae490600161360c565b1115610b025760405162461bcd60e51b81526004016108359061366a565b601854421015610b6a5760405162461bcd60e51b815260206004820152602d60248201527f506c616e6574486f7273654e46543a2077686974656c6973742073616c65206860448201526c185cdb89dd081cdd185c9d1959609a1b6064820152608401610835565b6000610b75600e5490565b60008181526021602090815260409091208451929350610b99929091850190613034565b50610ba43383611c86565b50506001600b55565b600a546001600160a01b03610100909104163314610bdd5760405162461bcd60e51b815260040161083590613597565b601955565b610bec3382612357565b610c085760405162461bcd60e51b8152600401610835906136ac565b61099f83838361244e565b6000610c1e836110e5565b8210610c805760405162461bcd60e51b815260206004820152602b60248201527f455243373231456e756d657261626c653a206f776e657220696e646578206f7560448201526a74206f6620626f756e647360a81b6064820152608401610835565b506001600160a01b03919091166000908152600660209081526040808320938352929052205490565b600a546001600160a01b03610100909104163314610cd95760405162461bcd60e51b815260040161083590613597565b6001600160a01b038216610cff5760405162461bcd60e51b8152600401610835906136fd565b610d0982826125f5565b5050565b600a546001600160a01b03610100909104163314610d3d5760405162461bcd60e51b815260040161083590613597565b610d486000336125f5565b565b600a546001600160a01b03610100909104163314610d7a5760405162461bcd60e51b815260040161083590613597565b610d48612847565b61099f838383604051806020016040528060008152506112c2565b600a546001600160a01b03610100909104163314610dcd5760405162461bcd60e51b815260040161083590613597565b601c805460ff1916911515919091179055565b600a546001600160a01b03610100909104163314610e105760405162461bcd60e51b815260040161083590613597565b6001600160a01b038116610e365760405162461bcd60e51b81526004016108359061374d565b336001600160a01b03821603610e4b57600080fd5b6001600160a01b03166000908152600c60205260409020805460ff19169055565b6000610e7760085490565b8210610eda5760405162461bcd60e51b815260206004820152602c60248201527f455243373231456e756d657261626c653a20676c6f62616c20696e646578206f60448201526b7574206f6620626f756e647360a01b6064820152608401610835565b60088281548110610eed57610eed61379c565b90600052602060002001549050919050565b600a546001600160a01b03610100909104163314610f2f5760405162461bcd60e51b815260040161083590613597565b610f3a6000826125f5565b50565b6000818152600260205260408120546001600160a01b0316806107285760405162461bcd60e51b815260206004820152602960248201527f4552433732313a206f776e657220717565727920666f72206e6f6e657869737460448201526832b73a103a37b5b2b760b91b6064820152608401610835565b600a546001600160a01b03610100909104163314610fe45760405162461bcd60e51b815260040161083590613597565b601655565b336000908152600c602052604090205460ff16806110175750600a546001600160a01b036101009091041633145b61102057600080fd5b336000908152600c602052604090205460ff16156110a9576000818152601f602052604090205460ff16156110a95760405162461bcd60e51b815260206004820152602960248201527f506c616e6574486f7273654e46543a204475706c6963617465642072657665616044820152681b081c995c5d595cdd60ba1b6064820152608401610835565b600081815260226020908152604090912083516110c892850190613034565b506000908152601f60205260409020805460ff1916600117905550565b60006001600160a01b0382166111505760405162461bcd60e51b815260206004820152602a60248201527f4552433732313a2062616c616e636520717565727920666f7220746865207a65604482015269726f206164647265737360b01b6064820152608401610835565b506001600160a01b031660009081526003602052604090205490565b600a546001600160a01b0361010090910416331461119c5760405162461bcd60e51b815260040161083590613597565b610d4860006128da565b600a546001600160a01b036101009091041633146111d65760405162461bcd60e51b815260040161083590613597565b610d48612934565b600a546001600160a01b0361010090910416331461120e5760405162461bcd60e51b815260040161083590613597565b6001600160a01b0381166112345760405162461bcd60e51b8152600401610835906136fd565b610f3a81336125f5565b60606001805461073d9061355d565b600a546001600160a01b0361010090910416331461127d5760405162461bcd60e51b815260040161083590613597565b601a55565b610d0933838361298c565b600a546001600160a01b036101009091041633146112bd5760405162461bcd60e51b815260040161083590613597565b601855565b6112cc3383612357565b6112e85760405162461bcd60e51b8152600401610835906136ac565b6112f484848484612a5a565b50505050565b600a546001600160a01b0361010090910416331461132a5760405162461bcd60e51b815260040161083590613597565b8051610d09906015906020840190613034565b600a546001600160a01b0361010090910416331461136d5760405162461bcd60e51b815260040161083590613597565b601b55565b600a546001600160a01b036101009091041633146113a25760405162461bcd60e51b815260040161083590613597565b60005b8151811015610d09576001602060008484815181106113c6576113c661379c565b6020908102919091018101516001600160a01b03168252810191909152604001600020805460ff191691151591909117905580611402816137b2565b9150506113a5565b600a5460ff161561142d5760405162461bcd60e51b8152600401610835906135cc565b6000818152601e602052604090205460ff161561149b5760405162461bcd60e51b815260206004820152602660248201527f506c616e6574486f7273654e46543a20746f6b656e20616c72656164792072656044820152651d99585b195960d21b6064820152608401610835565b336114a582610f3d565b6001600160a01b03161461150c5760405162461bcd60e51b815260206004820152602860248201527f506c616e6574486f7273654e46543a206f6e6c79204e4654206f776e657220636044820152670c2dc40eadcc4def60c31b6064820152608401610835565b601b544210156115715760405162461bcd60e51b815260206004820152602a60248201527f506c616e6574486f7273654e46543a20626f78206f70656e696e67206861736e60448201526909dd081cdd185c9d195960b21b6064820152608401610835565b6000818152601e60209081526040808320805460ff19166001179055602190915290819020905133917f85481e0117479c80913dbc94b962f3eff582b056fd064b657e96a9fa3e3ea922916115c79185916137cb565b60405180910390a250565b6000818152600260205260409020546060906001600160a01b03166116095760405162461bcd60e51b815260040161083590613858565b600082815260216020526040902080546116229061355d565b80601f016020809104026020016040519081016040528092919081815260200182805461164e9061355d565b801561169b5780601f106116705761010080835404028352916020019161169b565b820191906000526020600020905b81548152906001019060200180831161167e57829003601f168201915b50505050509050919050565b6000818152600260205260409020546060906001600160a01b03166116de5760405162461bcd60e51b815260040161083590613858565b6000828152601e602052604090205460ff161561172a576000828152602260209081526040918290209151611714929101613916565b6040516020818303038152906040529050919050565b601560216000848152602001908152602001600020604051602001611714929190613922565b919050565b600a546001600160a01b036101009091041633146117855760405162461bcd60e51b815260040161083590613597565b6001600160a01b0381166117ab5760405162461bcd60e51b81526004016108359061374d565b6001600160a01b03166000908152600c60205260409020805460ff19166001179055565b600a5460ff16156117f25760405162461bcd60e51b8152600401610835906135cc565b6002600b54036118445760405162461bcd60e51b815260206004820152601f60248201527f5265656e7472616e637947756172643a207265656e7472616e742063616c6c006044820152606401610835565b6002600b5561185281611b21565b601a5442101561189157601754611868336110e5565b61187390600161360c565b11156118915760405162461bcd60e51b815260040161083590613624565b6016546008546118a290600161360c565b11156118c05760405162461bcd60e51b81526004016108359061366a565b601954421015610b6a5760405162461bcd60e51b815260206004820152602a60248201527f506c616e6574486f7273654e46543a207075626c69632073616c65206861736e60448201526909dd081cdd185c9d195960b21b6064820152608401610835565b600a546001600160a01b036101009091041633146119555760405162461bcd60e51b815260040161083590613597565b6001600160a01b0381166119ba5760405162461bcd60e51b815260206004820152602660248201527f4f776e61626c653a206e6577206f776e657220697320746865207a65726f206160448201526564647265737360d01b6064820152608401610835565b610f3a816128da565b600a546001600160a01b036101009091041633146119f35760405162461bcd60e51b815260040161083590613597565b6119fc81611b21565b6000611a07600e5490565b60008181526021602090815260409091208451929350611a2b929091850190613034565b5061099f83612a8d565b80546001019055565b60006001600160e01b031982166380ac58cd60e01b1480611a6f57506001600160e01b03198216635b5e139f60e01b145b8061072857506301ffc9a760e01b6001600160e01b0319831614610728565b60006001600160e01b0319821663780e9d6360e01b1480610728575061072882611a3e565b600081815260046020526040902080546001600160a01b0319166001600160a01b0384169081179091558190611ae882610f3d565b6001600160a01b03167f8c5be1e5ebec7d5bd14f71427d1e84f3dd0314c0f7b2291e5b200ac8c7c3b92560405160405180910390a45050565b805160208201207f3955032f1b4fd3485213d1c8a0e4ced5c0b5d4e9ffa466e04ca90c624d38a2521480611b7a5750805160208201207f2cf735e2c7740b1996c475c19261a0b7dc86863c4718b4dfa4b90956a5ece4ff145b80611baa5750805160208201207f41ffe11b53b3b4b3c7e561e2030cadfb46606e683613c6775c6896bbb9dc3f74145b80611bda5750805160208201207f04f4f20a2d65eb0f15d7fb252c9027859568c706ff77f8b4471a76adbed564c4145b80611c0a5750805160208201207fa76b05647d9b491c5152725088a2716b8cbccbeee61d5e96496d3d90a759ca54145b80611c3a5750805160208201207f22788cfc2137a65afabbd2a0858d0b06af1af141310b42f9ff8a00bc1eaa7ecf145b610f3a5760405162461bcd60e51b815260206004820181905260248201527f506c616e6574486f7273654e46543a20696e76616c696420617267756d656e746044820152606401610835565b600a5460ff1615611ca95760405162461bcd60e51b8152600401610835906135cc565b805160208201207fc6aafcd0e4b02cb7adec2e375f1b312a3f4a2b16005b991fb356f39db2c75dae01611dba576000611ce1600f5490565b601d5490915061ffff90811690821610611d0d5760405162461bcd60e51b81526004016108359061394d565b600d546040516323b872dd60e01b81526001600160a01b03909116906323b872dd90611d449086903090624c4b4090600401613990565b6020604051808303816000875af1158015611d63573d6000803e3d6000fd5b505050506040513d601f19601f82011682018060405250810190611d8791906139b4565b611da35760405162461bcd60e51b8152600401610835906139d1565b611db1600f80546001019055565b61099f83612a8d565b805160208201207fd308ca1d388bf4e6693b8a3e6d9e5f48237979c3b8e74b205b46f6a95a131b0101611ec8576000611df260105490565b601d5490915061ffff62010000909104811690821610611e245760405162461bcd60e51b81526004016108359061394d565b600d546040516323b872dd60e01b81526001600160a01b03909116906323b872dd90611e5b9086903090627270e090600401613990565b6020604051808303816000875af1158015611e7a573d6000803e3d6000fd5b505050506040513d601f19601f82011682018060405250810190611e9e91906139b4565b611eba5760405162461bcd60e51b8152600401610835906139d1565b611db1601080546001019055565b805160208201207fbe001ee4ac4c4b4c381a9e1dfcf35204b99f9197c9ec3988a39769444623c08c01611fd8576000611f0060115490565b601d5490915061ffff640100000000909104811690821610611f345760405162461bcd60e51b81526004016108359061394d565b600d546040516323b872dd60e01b81526001600160a01b03909116906323b872dd90611f6b908690309062b71b0090600401613990565b6020604051808303816000875af1158015611f8a573d6000803e3d6000fd5b505050506040513d601f19601f82011682018060405250810190611fae91906139b4565b611fca5760405162461bcd60e51b8152600401610835906139d1565b611db1601180546001019055565b805160208201207ffb0b0df5d29a14f0ea2804dad36fd87a6a9738f90088074bb8e58952412a9b3c016120ea57600061201060125490565b601d5490915061ffff66010000000000009091048116908216106120465760405162461bcd60e51b81526004016108359061394d565b600d546040516323b872dd60e01b81526001600160a01b03909116906323b872dd9061207d908690309062e4e1c090600401613990565b6020604051808303816000875af115801561209c573d6000803e3d6000fd5b505050506040513d601f19601f820116820180604052508101906120c091906139b4565b6120dc5760405162461bcd60e51b8152600401610835906139d1565b611db1601280546001019055565b805160208201207f5894fa9b8264b6e3aead8daf775d8e947343341119e2a169b692c26f58a635ac016121ff57600061212260135490565b601d5490915061ffff6801000000000000000090910481169082161061215a5760405162461bcd60e51b81526004016108359061394d565b600d546040516323b872dd60e01b81526001600160a01b03909116906323b872dd9061219290869030906301c9c38090600401613990565b6020604051808303816000875af11580156121b1573d6000803e3d6000fd5b505050506040513d601f19601f820116820180604052508101906121d591906139b4565b6121f15760405162461bcd60e51b8152600401610835906139d1565b611db1601380546001019055565b805160208201207fdd877303dec859a505442d5f7a72f4f950e50ebecef4bd060075ff43e15581310161230f57600061223760145490565b601d5490915061ffff600160501b90910481169082161061226a5760405162461bcd60e51b81526004016108359061394d565b600d546040516323b872dd60e01b81526001600160a01b03909116906323b872dd906122a290869030906302faf08090600401613990565b6020604051808303816000875af11580156122c1573d6000803e3d6000fd5b505050506040513d601f19601f820116820180604052508101906122e591906139b4565b6123015760405162461bcd60e51b8152600401610835906139d1565b611db1601480546001019055565b60405162461bcd60e51b815260206004820181905260248201527f506c616e6574486f7273654e46543a20696e76616c696420617267756d656e746044820152606401610835565b6000818152600260205260408120546001600160a01b03166123d05760405162461bcd60e51b815260206004820152602c60248201527f4552433732313a206f70657261746f7220717565727920666f72206e6f6e657860448201526b34b9ba32b73a103a37b5b2b760a11b6064820152608401610835565b60006123db83610f3d565b9050806001600160a01b0316846001600160a01b031614806124165750836001600160a01b031661240b846107c0565b6001600160a01b0316145b8061244657506001600160a01b0380821660009081526005602090815260408083209388168352929052205460ff165b949350505050565b826001600160a01b031661246182610f3d565b6001600160a01b0316146124c55760405162461bcd60e51b815260206004820152602560248201527f4552433732313a207472616e736665722066726f6d20696e636f72726563742060448201526437bbb732b960d91b6064820152608401610835565b6001600160a01b0382166125275760405162461bcd60e51b8152602060048201526024808201527f4552433732313a207472616e7366657220746f20746865207a65726f206164646044820152637265737360e01b6064820152608401610835565b612532838383612ad4565b61253d600082611ab3565b6001600160a01b0383166000908152600360205260408120805460019290612566908490613a08565b90915550506001600160a01b038216600090815260036020526040812080546001929061259490849061360c565b909155505060008181526002602052604080822080546001600160a01b0319166001600160a01b0386811691821790925591518493918716917fddf252ad1be2c89b69c2b068fc378daa952ba7f163c4a11628f55a4df523b3ef91a4505050565b6001600160a01b0381166126615760405162461bcd60e51b815260206004820152602d60248201527f576974686472617761626c653a2063616e6e6f7420776974686472617720746f60448201526c207a65726f206164647265737360981b6064820152608401610835565b6001600160a01b038216156127b7576040516370a0823160e01b815230600482015282906000906001600160a01b038316906370a0823190602401602060405180830381865afa1580156126b9573d6000803e3d6000fd5b505050506040513d601f19601f820116820180604052508101906126dd9190613a1f565b90506000811161273d5760405162461bcd60e51b815260206004820152602560248201527f576974686472617761626c653a2063616e6e6f74207769746864726177203020604482015264045524332360dc1b6064820152608401610835565b60405163a9059cbb60e01b81526001600160a01b0384811660048301526024820183905283169063a9059cbb906044016020604051808303816000875af115801561278c573d6000803e3d6000fd5b505050506040513d601f19601f820116820180604052508101906127b091906139b4565b5050505050565b47806128115760405162461bcd60e51b815260206004820152602360248201527f576974686472617761626c653a2063616e6e6f7420776974686472617720302060448201526208aa8960eb1b6064820152608401610835565b6040516001600160a01b0383169082156108fc029083906000818181858888f193505050501580156112f4573d6000803e3d6000fd5b600a5460ff166128905760405162461bcd60e51b815260206004820152601460248201527314185d5cd8589b194e881b9bdd081c185d5cd95960621b6044820152606401610835565b600a805460ff191690557f5db9ee0a495bf2e6ff9c91a7834c1ba4fdd244a5e8aa4e537bd38aeae4b073aa335b6040516001600160a01b03909116815260200160405180910390a1565b600a80546001600160a01b03838116610100818102610100600160a81b031985161790945560405193909204169182907f8be0079c531659141344cd1fd0a4f28419497f9722a3daafe3b4186f6b6457e090600090a35050565b600a5460ff16156129575760405162461bcd60e51b8152600401610835906135cc565b600a805460ff191660011790557f62e78cea01bee320cd4e420270b5ea74000d11b0c9f74754ebdbfc544b05a2586128bd3390565b816001600160a01b0316836001600160a01b0316036129ed5760405162461bcd60e51b815260206004820152601960248201527f4552433732313a20617070726f766520746f2063616c6c6572000000000000006044820152606401610835565b6001600160a01b03838116600081815260056020908152604080832094871680845294825291829020805460ff191686151590811790915591519182527f17307eab39ab6107e8899845ad3d59bd9653f200f220920489ca2b5937696c31910160405180910390a3505050565b612a6584848461244e565b612a7184848484612b50565b6112f45760405162461bcd60e51b815260040161083590613a38565b6000612a98600e5490565b9050601654811115612abc5760405162461bcd60e51b81526004016108359061366a565b612aca600e80546001019055565b610d098282612c51565b601c5460ff161580612aed57506001600160a01b038316155b612b455760405162461bcd60e51b8152602060048201526024808201527f506c616e6574486f7273654e46543a207472616e7366657273206172652070616044820152631d5cd95960e21b6064820152608401610835565b61099f838383612c6b565b60006001600160a01b0384163b15612c4657604051630a85bd0160e11b81526001600160a01b0385169063150b7a0290612b94903390899088908890600401613a8a565b6020604051808303816000875af1925050508015612bcf575060408051601f3d908101601f19168201909252612bcc91810190613ac7565b60015b612c2c573d808015612bfd576040519150601f19603f3d011682016040523d82523d6000602084013e612c02565b606091505b508051600003612c245760405162461bcd60e51b815260040161083590613a38565b805181602001fd5b6001600160e01b031916630a85bd0160e11b149050612446565b506001949350505050565b610d09828260405180602001604052806000815250612d23565b6001600160a01b038316612cc657612cc181600880546000838152600960205260408120829055600182018355919091527ff3f7a9fe364faab93b216da50a3214154f22a0a2b415b23a84c8169e8b636ee30155565b612ce9565b816001600160a01b0316836001600160a01b031614612ce957612ce98382612d56565b6001600160a01b038216612d005761099f81612df3565b826001600160a01b0316826001600160a01b03161461099f5761099f8282612ea2565b612d2d8383612ee6565b612d3a6000848484612b50565b61099f5760405162461bcd60e51b815260040161083590613a38565b60006001612d63846110e5565b612d6d9190613a08565b600083815260076020526040902054909150808214612dc0576001600160a01b03841660009081526006602090815260408083208584528252808320548484528184208190558352600790915290208190555b5060009182526007602090815260408084208490556001600160a01b039094168352600681528383209183525290812055565b600854600090612e0590600190613a08565b60008381526009602052604081205460088054939450909284908110612e2d57612e2d61379c565b906000526020600020015490508060088381548110612e4e57612e4e61379c565b6000918252602080832090910192909255828152600990915260408082208490558582528120556008805480612e8657612e86613ae4565b6001900381819060005260206000200160009055905550505050565b6000612ead836110e5565b6001600160a01b039093166000908152600660209081526040808320868452825280832085905593825260079052919091209190915550565b6001600160a01b038216612f3c5760405162461bcd60e51b815260206004820181905260248201527f4552433732313a206d696e7420746f20746865207a65726f20616464726573736044820152606401610835565b6000818152600260205260409020546001600160a01b031615612fa15760405162461bcd60e51b815260206004820152601c60248201527f4552433732313a20746f6b656e20616c7265616479206d696e746564000000006044820152606401610835565b612fad60008383612ad4565b6001600160a01b0382166000908152600360205260408120805460019290612fd690849061360c565b909155505060008181526002602052604080822080546001600160a01b0319166001600160a01b03861690811790915590518392907fddf252ad1be2c89b69c2b068fc378daa952ba7f163c4a11628f55a4df523b3ef908290a45050565b8280546130409061355d565b90600052602060002090601f01602090048101928261306257600085556130a8565b82601f1061307b57805160ff19168380011785556130a8565b828001600101855582156130a8579182015b828111156130a857825182559160200191906001019061308d565b506130b49291506130b8565b5090565b5b808211156130b457600081556001016130b9565b6001600160e01b031981168114610f3a57600080fd5b6000602082840312156130f557600080fd5b8135613100816130cd565b9392505050565b6000815180845260005b8181101561312d57602081850181015186830182015201613111565b8181111561313f576000602083870101525b50601f01601f19169290920160200192915050565b6020815260006131006020830184613107565b60006020828403121561317957600080fd5b5035919050565b80356001600160a01b038116811461175057600080fd5b600080604083850312156131aa57600080fd5b6131b383613180565b946020939093013593505050565b634e487b7160e01b600052604160045260246000fd5b604051601f8201601f1916810167ffffffffffffffff81118282101715613200576132006131c1565b604052919050565b600067ffffffffffffffff831115613222576132226131c1565b613235601f8401601f19166020016131d7565b905082815283838301111561324957600080fd5b828260208301376000602084830101529392505050565b600082601f83011261327157600080fd5b61310083833560208501613208565b60006020828403121561329257600080fd5b813567ffffffffffffffff8111156132a957600080fd5b61244684828501613260565b6000806000606084860312156132ca57600080fd5b6132d384613180565b92506132e160208501613180565b9150604084013590509250925092565b6000806040838503121561330457600080fd5b61330d83613180565b915061331b60208401613180565b90509250929050565b8015158114610f3a57600080fd5b60006020828403121561334457600080fd5b813561310081613324565b60006020828403121561336157600080fd5b61310082613180565b6000806040838503121561337d57600080fd5b823567ffffffffffffffff81111561339457600080fd5b6133a085828601613260565b95602094909401359450505050565b600080604083850312156133c257600080fd5b6133cb83613180565b915060208301356133db81613324565b809150509250929050565b600080600080608085870312156133fc57600080fd5b61340585613180565b935061341360208601613180565b925060408501359150606085013567ffffffffffffffff81111561343657600080fd5b8501601f8101871361344757600080fd5b61345687823560208401613208565b91505092959194509250565b6000602080838503121561347557600080fd5b823567ffffffffffffffff8082111561348d57600080fd5b818501915085601f8301126134a157600080fd5b8135818111156134b3576134b36131c1565b8060051b91506134c48483016131d7565b81815291830184019184810190888411156134de57600080fd5b938501935b83851015613503576134f485613180565b825293850193908501906134e3565b98975050505050505050565b6000806040838503121561352257600080fd5b61352b83613180565b9150602083013567ffffffffffffffff81111561354757600080fd5b61355385828601613260565b9150509250929050565b600181811c9082168061357157607f821691505b60208210810361359157634e487b7160e01b600052602260045260246000fd5b50919050565b6020808252818101527f4f776e61626c653a2063616c6c6572206973206e6f7420746865206f776e6572604082015260600190565b60208082526010908201526f14185d5cd8589b194e881c185d5cd95960821b604082015260600190565b634e487b7160e01b600052601160045260246000fd5b6000821982111561361f5761361f6135f6565b500190565b60208082526026908201527f506c616e6574486f7273654e46543a2065786365656473206d6178206d696e74604082015265081b1a5b5a5d60d21b606082015260800190565b60208082526022908201527f506c616e6574486f7273654e46543a2065786365656473206d617820737570706040820152616c7960f01b606082015260800190565b60208082526031908201527f4552433732313a207472616e736665722063616c6c6572206973206e6f74206f6040820152701ddb995c881b9bdc88185c1c1c9bdd9959607a1b606082015260800190565b60208082526030908201527f576974686472617761626c653a207a65726f2061646472657373206973206e6f60408201526f3a1030b71022a9219918103a37b5b2b760811b606082015260800190565b6020808252602f908201527f417574686f72697a61626c653a206e657720617574686f72697479206973207460408201526e6865207a65726f206164647265737360881b606082015260800190565b634e487b7160e01b600052603260045260246000fd5b6000600182016137c4576137c46135f6565b5060010190565b82815260006020604081840152600084546137e58161355d565b8060408701526060600180841660008114613807576001811461381b57613849565b60ff19851689840152608089019550613849565b896000528660002060005b858110156138415781548b8201860152908301908801613826565b8a0184019650505b50939998505050505050505050565b6020808252602f908201527f4552433732314d657461646174613a2055524920717565727920666f72206e6f60408201526e3732bc34b9ba32b73a103a37b5b2b760891b606082015260800190565b600081546138b48161355d565b600182811680156138cc57600181146138dd5761390c565b60ff1984168752828701945061390c565b8560005260208060002060005b858110156139035781548a8201529084019082016138ea565b50505082870194505b5050505092915050565b600061310082846138a7565b600061393761393183866138a7565b846138a7565b64173539b7b760d91b8152600501949350505050565b60208082526023908201527f506c616e6574486f7273654e46543a2054696572204c696d697420526561636860408201526265642160e81b606082015260800190565b6001600160a01b039384168152919092166020820152604081019190915260600190565b6000602082840312156139c657600080fd5b815161310081613324565b6020808252601f908201527f506c616e6574486f7273654e46543a205061796d656e74204661696c65642100604082015260600190565b600082821015613a1a57613a1a6135f6565b500390565b600060208284031215613a3157600080fd5b5051919050565b60208082526032908201527f4552433732313a207472616e7366657220746f206e6f6e20455243373231526560408201527131b2b4bb32b91034b6b83632b6b2b73a32b960711b606082015260800190565b6001600160a01b0385811682528416602082015260408101839052608060608201819052600090613abd90830184613107565b9695505050505050565b600060208284031215613ad957600080fd5b8151613100816130cd565b634e487b7160e01b600052603160045260246000fdfea2646970667358221220fa1ab2cb92e5477c45b6dc19de04db87279533d9234fe60e231401e3528587c464736f6c634300080d0033",
  "immutableReferences": {},
  "source": "// SPDX-License-Identifier: MIT\r\n\r\npragma solidity ^0.8.0;\r\n\r\nimport \"@openzeppelin/contracts/token/ERC20/ERC20.sol\";\r\nimport \"@openzeppelin/contracts/token/ERC721/ERC721.sol\";\r\nimport \"@openzeppelin/contracts/token/ERC721/extensions/ERC721Enumerable.sol\";\r\nimport \"@openzeppelin/contracts/security/Pausable.sol\";\r\nimport \"@openzeppelin/contracts/security/ReentrancyGuard.sol\";\r\nimport \"@openzeppelin/contracts/utils/Counters.sol\";\r\nimport \"@openzeppelin/contracts/utils/Strings.sol\";\r\nimport \"./Withdrawable.sol\";\r\nimport \"./Authorizable.sol\";\r\n\r\ncontract PlanetHorseNFT is\r\n  ERC721,\r\n  ERC721Enumerable,\r\n  Pausable,\r\n  Withdrawable,\r\n  ReentrancyGuard,\r\n  Authorizable\r\n{\r\n  using Counters for Counters.Counter;\r\n  using Strings for uint256;\r\n\r\n  event RevealRequested(address indexed from, uint256 tokenId, string tokenTier);\r\n\r\n  ERC20 public paymentCurrency;\r\n\r\n  Counters.Counter private _tokenIdCounter;\r\n  Counters.Counter private _commonSupply;\r\n  Counters.Counter private _rareSupply;\r\n  Counters.Counter private _srareSupply;\r\n  Counters.Counter private _epicSupply;\r\n  Counters.Counter private _legendSupply;\r\n  Counters.Counter private _slegendSupply;\r\n\r\n  string private _hiddenBaseURI;\r\n\r\n  uint256 private _maxSupply;\r\n  uint256 private _maxMintAmount;\r\n\r\n  uint256 private _whitelistSaleTime;\r\n  uint256 private _publicSaleTime;\r\n  uint256 private _unlimitedSaleTime;\r\n  uint256 private _revealTime;\r\n\r\n  bool private _transfersPaused;\r\n\r\n  struct TieredSupply {\r\n    uint16 COMMON_MAX_SUPPLY;\r\n    uint16 RARE_MAX_SUPPLY;\r\n    uint16 SRARE_MAX_SUPPLY;\r\n    uint16 EPIC_MAX_SUPPLY;\r\n    uint16 LEGEND_MAX_SUPPLY;\r\n    uint16 SLEGEND_MAX_SUPPLY;\r\n  }\r\n\r\n  TieredSupply internal _tieredSupply = TieredSupply({\r\n    COMMON_MAX_SUPPLY: 1800,\r\n    RARE_MAX_SUPPLY: 1650,\r\n    SRARE_MAX_SUPPLY: 1500,\r\n    EPIC_MAX_SUPPLY: 1125,\r\n    LEGEND_MAX_SUPPLY: 900,\r\n    SLEGEND_MAX_SUPPLY: 525\r\n  });\r\n\r\n  mapping(uint256 => bool) private _revealed;\r\n  mapping(uint256 => bool) private _revealRequestCompleted;\r\n  mapping(address => bool) private _whitelist;\r\n  mapping(uint256 => string) private _tokenTiers;\r\n  mapping(uint256 => string) private _revealedTokenURIs;\r\n\r\n\r\n  constructor(\r\n    ERC20 paymentCurrency_,\r\n    uint256 maxSupply_,\r\n    uint256 maxMintAmount_,\r\n    uint256 whitelistSaleTime_,\r\n    uint256 publicSaleTime_,\r\n    uint256 unlimitedSaleTime_,\r\n    string memory hiddenBaseURI_,\r\n    bool transfersPaused_\r\n  )\r\n    ERC721(\"PlanetHorseNFT\", \"PHORSE NFT\")\r\n  { \r\n    paymentCurrency = paymentCurrency_;\r\n    _maxSupply = maxSupply_;\r\n    _maxMintAmount = maxMintAmount_;\r\n    _whitelistSaleTime = whitelistSaleTime_;\r\n    _publicSaleTime = publicSaleTime_;\r\n    _unlimitedSaleTime = unlimitedSaleTime_;\r\n    _hiddenBaseURI = hiddenBaseURI_;\r\n    _transfersPaused = transfersPaused_;\r\n\r\n    _tokenIdCounter.increment();\r\n  }\r\n\r\n  function maxSupply() public view returns (uint256) {\r\n    return _maxSupply;\r\n  }\r\n\r\n  function maxMintAmount() public view returns (uint256) {\r\n    return _maxMintAmount;\r\n  }\r\n\r\n  function pause() public onlyOwner {\r\n    _pause();\r\n  }\r\n\r\n  function unpause() public onlyOwner {\r\n    _unpause();\r\n  }\r\n\r\n  function mint(\r\n    string memory rarity_\r\n    )\r\n     external \r\n     whenNotPaused \r\n     nonReentrant \r\n  {\r\n    _checkRarityBeforeMint(rarity_);\r\n    if (block.timestamp < _unlimitedSaleTime) {\r\n      require(\r\n      balanceOf(msg.sender) + 1 <= _maxMintAmount,\r\n      \"PlanetHorseNFT: exceeds max mint limit\"\r\n    );\r\n    }\r\n    require(\r\n      totalSupply() + 1 <= _maxSupply,\r\n      \"PlanetHorseNFT: exceeds max supply\"\r\n    );\r\n    if (block.timestamp < _publicSaleTime) {\r\n      revert(\"PlanetHorseNFT: public sale hasn't started\");\r\n    }\r\n\r\n      uint256 tokenId = _tokenIdCounter.current();\r\n      _tokenTiers[tokenId] = rarity_;\r\n      _mintByRarity(msg.sender, rarity_);\r\n    \r\n  }\r\n\r\n  function mintWhitelist(\r\n    string memory rarity_\r\n  )\r\n    external\r\n    whenNotPaused\r\n    nonReentrant\r\n  {\r\n    _checkRarityBeforeMint(rarity_);\r\n    require(\r\n      _whitelist[msg.sender],\r\n      \"PlanetHorseNFT: sender not whitelisted\"\r\n    );\r\n    if (block.timestamp < _unlimitedSaleTime) {\r\n      require(\r\n      balanceOf(msg.sender) + 1 <= _maxMintAmount,\r\n      \"PlanetHorseNFT: exceeds max mint limit\"\r\n    );\r\n    }\r\n    require(\r\n      totalSupply() + 1 <= _maxSupply,\r\n      \"PlanetHorseNFT: exceeds max supply\"\r\n    );\r\n    if (block.timestamp < _whitelistSaleTime) {\r\n      revert(\"PlanetHorseNFT: whitelist sale hasn't started\");\r\n    }\r\n    \r\n      uint256 tokenId = _tokenIdCounter.current();\r\n      _tokenTiers[tokenId] = rarity_;\r\n      _mintByRarity(msg.sender, rarity_);\r\n    \r\n  }\r\n\r\n  function mintOwner(address to_, string memory rarity_) external onlyOwner {\r\n      _checkRarityBeforeMint(rarity_);\r\n      uint256 tokenId = _tokenIdCounter.current();\r\n      _tokenTiers[tokenId] = rarity_;\r\n      _safeMint(to_);\r\n  }\r\n\r\n  function _safeMint(address to) internal {\r\n    uint256 tokenId = _tokenIdCounter.current();\r\n    require(tokenId <= _maxSupply, 'PlanetHorseNFT: exceeds max supply');\r\n\r\n    _tokenIdCounter.increment();\r\n    _safeMint(to, tokenId);\r\n  }\r\n\r\n  function _checkRarityBeforeMint(string memory rarity_) internal pure {\r\n        require(\r\n        keccak256(bytes(rarity_)) == keccak256(\"common\") || \r\n        keccak256(bytes(rarity_)) == keccak256(\"rare\") || \r\n        keccak256(bytes(rarity_)) == keccak256(\"srare\") || \r\n        keccak256(bytes(rarity_)) == keccak256(\"epic\") || \r\n        keccak256(bytes(rarity_)) == keccak256(\"legend\") || \r\n        keccak256(bytes(rarity_)) == keccak256(\"slegend\"), \"PlanetHorseNFT: invalid argument\"\r\n        );\r\n  }\r\n\r\n  function _mintByRarity(address minter_, string memory rarity_) internal whenNotPaused {\r\n      if (keccak256(bytes(rarity_)) == keccak256(\"common\")) {\r\n        uint16 tierSupply = uint16(_commonSupply.current());\r\n        require(tierSupply < _tieredSupply.COMMON_MAX_SUPPLY, \"PlanetHorseNFT: Tier Limit Reached!\");\r\n        require(paymentCurrency.transferFrom(minter_, address(this), 5000000), \"PlanetHorseNFT: Payment Failed!\");\r\n        _commonSupply.increment();\r\n        _safeMint(minter_);       \r\n      } else if (keccak256(bytes(rarity_)) == keccak256(\"rare\")) {\r\n        uint16 tierSupply = uint16(_rareSupply.current());\r\n        require(tierSupply < _tieredSupply.RARE_MAX_SUPPLY, \"PlanetHorseNFT: Tier Limit Reached!\");\r\n        require(paymentCurrency.transferFrom(minter_, address(this), 7500000), \"PlanetHorseNFT: Payment Failed!\");\r\n        _rareSupply.increment();\r\n        _safeMint(minter_);\r\n      } else if (keccak256(bytes(rarity_)) == keccak256(\"srare\")) {\r\n        uint16 tierSupply = uint16(_srareSupply.current());\r\n        require(tierSupply < _tieredSupply.SRARE_MAX_SUPPLY, \"PlanetHorseNFT: Tier Limit Reached!\");\r\n        require(paymentCurrency.transferFrom(minter_, address(this), 12000000), \"PlanetHorseNFT: Payment Failed!\");\r\n        _srareSupply.increment();\r\n        _safeMint(minter_);\r\n      } else if (keccak256(bytes(rarity_)) == keccak256(\"epic\")) {\r\n        uint16 tierSupply = uint16(_epicSupply.current());\r\n        require(tierSupply < _tieredSupply.EPIC_MAX_SUPPLY, \"PlanetHorseNFT: Tier Limit Reached!\");\r\n        require(paymentCurrency.transferFrom(minter_, address(this), 15000000), \"PlanetHorseNFT: Payment Failed!\");\r\n        _epicSupply.increment();\r\n        _safeMint(minter_);\r\n      } else if (keccak256(bytes(rarity_)) == keccak256(\"legend\")) {\r\n        uint16 tierSupply = uint16(_legendSupply.current());\r\n        require(tierSupply < _tieredSupply.LEGEND_MAX_SUPPLY, \"PlanetHorseNFT: Tier Limit Reached!\");\r\n        require(paymentCurrency.transferFrom(minter_, address(this), 30000000), \"PlanetHorseNFT: Payment Failed!\");\r\n        _legendSupply.increment();\r\n        _safeMint(minter_);\r\n      } else if (keccak256(bytes(rarity_)) == keccak256(\"slegend\")) {\r\n        uint16 tierSupply = uint16(_slegendSupply.current());\r\n        require(tierSupply < _tieredSupply.SLEGEND_MAX_SUPPLY, \"PlanetHorseNFT: Tier Limit Reached!\");\r\n        require(paymentCurrency.transferFrom(minter_, address(this), 50000000), \"PlanetHorseNFT: Payment Failed!\");\r\n        _slegendSupply.increment();\r\n        _safeMint(minter_);\r\n      } else {\r\n        revert(\"PlanetHorseNFT: invalid argument\");\r\n      }\r\n  }\r\n\r\n  function tokenURI(uint256 tokenId)\r\n    public\r\n    view\r\n    override\r\n    returns (string memory)\r\n  {\r\n    require(\r\n      _exists(tokenId),\r\n      \"ERC721Metadata: URI query for nonexistent token\"\r\n    );\r\n\r\n    if (_revealed[tokenId]) {\r\n      return\r\n        string(\r\n          abi.encodePacked(_revealedTokenURIs[tokenId])\r\n        );\r\n    } else {\r\n      return\r\n        string(\r\n          abi.encodePacked(_hiddenBaseURI, string(_tokenTiers[tokenId]), \".json\")\r\n        );\r\n    }\r\n  }\r\n\r\n  function tokenTierById(uint256 tokenId)\r\n    public\r\n    view\r\n    returns (string memory)\r\n  {\r\n    require(\r\n      _exists(tokenId),\r\n      \"ERC721Metadata: URI query for nonexistent token\"\r\n    );\r\n    return string(_tokenTiers[tokenId]);\r\n  }\r\n\r\n  function transfersPaused() public view returns (bool) {\r\n    return _transfersPaused;\r\n  }\r\n\r\n  function setTransfersPaused(bool transfersPaused_) external onlyOwner {\r\n    _transfersPaused = transfersPaused_;\r\n  }\r\n\r\n  function _beforeTokenTransfer(\r\n    address from,\r\n    address to,\r\n    uint256 tokenId\r\n  ) internal override(ERC721, ERC721Enumerable) {\r\n    require(\r\n      !_transfersPaused || from == address(0),\r\n      'PlanetHorseNFT: transfers are paused'\r\n    );\r\n\r\n    super._beforeTokenTransfer(from, to, tokenId);\r\n  }\r\n\r\n  function supportsInterface(bytes4 interfaceId)\r\n    public\r\n    view\r\n    override(ERC721, ERC721Enumerable)\r\n    returns (bool)\r\n  {\r\n    return\r\n      ERC721.supportsInterface(interfaceId) ||\r\n      ERC721Enumerable.supportsInterface(interfaceId);\r\n  }\r\n\r\n  function setMaxSupply(uint256 maxSupply_) external onlyOwner {\r\n    _maxSupply = maxSupply_;\r\n  }\r\n\r\n  function setMaxMintAmount(uint256 maxMintAmount_) external onlyOwner {\r\n    _maxMintAmount = maxMintAmount_;\r\n  }\r\n\r\n  function setHiddenURI(string memory baseURI)\r\n    external\r\n    onlyOwner\r\n  {\r\n    _hiddenBaseURI = baseURI;\r\n  }\r\n\r\n  function setRevealedURI(string memory baseURI, uint256 tokenId)\r\n    external\r\n    onlyAuthorized\r\n  {\r\n    if(authorized[msg.sender]) {\r\n      require(!_revealRequestCompleted[tokenId], \"PlanetHorseNFT: Duplicated reveal request\");\r\n    }\r\n    _revealedTokenURIs[tokenId] = baseURI;\r\n    _revealRequestCompleted[tokenId] = true;\r\n\r\n  }\r\n\r\n  function reveal(uint256 tokenId)\r\n    external\r\n    whenNotPaused\r\n  {\r\n    require(!_revealed[tokenId], \"PlanetHorseNFT: token already revealed\");\r\n    require(ownerOf(tokenId) == msg.sender, \"PlanetHorseNFT: only NFT owner can unbox\");\r\n    if (block.timestamp < _revealTime) {\r\n      revert(\"PlanetHorseNFT: box opening hasn't started\");\r\n    }\r\n     _revealed[tokenId] = true;\r\n     emit RevealRequested(msg.sender, tokenId, _tokenTiers[tokenId]);\r\n  }\r\n\r\n  function isRevealed(uint256 tokenId)\r\n    external\r\n    view\r\n    returns (bool)\r\n  {\r\n    return _revealed[tokenId];\r\n  }\r\n\r\n  function registerWhitelist(address[] memory addrs) external onlyOwner {\r\n        for(uint256 i = 0; i < addrs.length; i++)\r\n            _whitelist[addrs[i]] = true;\r\n    }\r\n\r\n  function whitelistSaleTime() public view returns (uint256) {\r\n    return _whitelistSaleTime;\r\n  }\r\n\r\n  function setWhitelistSaleTime(uint256 whitelistSaleTime_) external onlyOwner {\r\n    _whitelistSaleTime = whitelistSaleTime_;\r\n  }\r\n\r\n  function publicSaleTime() public view returns (uint256) {\r\n    return _publicSaleTime;\r\n  }\r\n\r\n  function setPublicSaleTime(uint256 publicSaleTime_) external onlyOwner {\r\n    _publicSaleTime = publicSaleTime_;\r\n  }\r\n\r\n  function unlimitedSaleTime() public view returns (uint256) {\r\n    return _unlimitedSaleTime;\r\n  }\r\n\r\n  function setunlimitedSaleTime(uint256 unlimitedSaleTime_) external onlyOwner {\r\n    _unlimitedSaleTime = unlimitedSaleTime_;\r\n  }\r\n\r\n    function revealTime() public view returns (uint256) {\r\n    return _revealTime;\r\n  }\r\n\r\n  function setRevealTime(uint256 revealTime_) external onlyOwner {\r\n    _revealTime = revealTime_;\r\n  }\r\n\r\n}",
  "sourcePath": "/home/taurinos/workspace/nft-presale/contracts/PlanetHorseNFT.sol",
  "compiler": {
    "name": "solc",
    "version": "0.8.13+commit.abaa5c0e.Emscripten.clang"
  },
  "schemaVersion": "3.4.6",
  "updatedAt": "2022-04-24T03:29:37.884Z",
  "networkType": "ethereum",
  "devdoc": {
    "kind": "dev",
    "methods": {
      "approve(address,uint256)": {
        "details": "See {IERC721-approve}."
      },
      "balanceOf(address)": {
        "details": "See {IERC721-balanceOf}."
      },
      "getApproved(uint256)": {
        "details": "See {IERC721-getApproved}."
      },
      "isApprovedForAll(address,address)": {
        "details": "See {IERC721-isApprovedForAll}."
      },
      "name()": {
        "details": "See {IERC721Metadata-name}."
      },
      "owner()": {
        "details": "Returns the address of the current owner."
      },
      "ownerOf(uint256)": {
        "details": "See {IERC721-ownerOf}."
      },
      "paused()": {
        "details": "Returns true if the contract is paused, and false otherwise."
      },
      "renounceOwnership()": {
        "details": "Leaves the contract without owner. It will not be possible to call `onlyOwner` functions anymore. Can only be called by the current owner. NOTE: Renouncing ownership will leave the contract without an owner, thereby removing any functionality that is only available to the owner."
      },
      "safeTransferFrom(address,address,uint256)": {
        "details": "See {IERC721-safeTransferFrom}."
      },
      "safeTransferFrom(address,address,uint256,bytes)": {
        "details": "See {IERC721-safeTransferFrom}."
      },
      "setApprovalForAll(address,bool)": {
        "details": "See {IERC721-setApprovalForAll}."
      },
      "symbol()": {
        "details": "See {IERC721Metadata-symbol}."
      },
      "tokenByIndex(uint256)": {
        "details": "See {IERC721Enumerable-tokenByIndex}."
      },
      "tokenOfOwnerByIndex(address,uint256)": {
        "details": "See {IERC721Enumerable-tokenOfOwnerByIndex}."
      },
      "tokenURI(uint256)": {
        "details": "See {IERC721Metadata-tokenURI}."
      },
      "totalSupply()": {
        "details": "See {IERC721Enumerable-totalSupply}."
      },
      "transferFrom(address,address,uint256)": {
        "details": "See {IERC721-transferFrom}."
      },
      "transferOwnership(address)": {
        "details": "Transfers ownership of the contract to a new account (`newOwner`). Can only be called by the current owner."
      }
    },
    "version": 1
  },
  "userdoc": {
    "kind": "user",
    "methods": {},
    "version": 1
  }
}